:020000040800F2
:10000000284100204102000839280008AF240008D8
:10001000F926000895090008814300080000000047
:10002000000000000000000000000000790100084E
:100030007B0B000800000000F10100082D02000801
:100040005B0200085B0200085B0200085B0200081C
:100050005B0200085B0200085B0200085B0200080C
:100060005B0200085B0200085B0200085B020008FC
:100070005B0200085B0200085B0200085B020008EC
:10008000450B00085B0200085B0200085B020008E9
:100090005B0200085B0200085B0200085B020008CC
:1000A0005B0200085B0200085B0200085B020008BC
:1000B0005B0200085B0200085B0200085B020008AC
:1000C0005B0200085B0200085B0200085B0200089C
:1000D0005B02000849430008554300085B02000822
:1000E0005B0200085B0200085B020008DFF81CD01E
:1000F00000F03CFC06F09AFB0021034806F088FC67
:1001000006F0A6FBFEE70000680000202841002062
:1001100080F309887047EFF309807047684680F3E1
:10012000098804480078C00714BF0220032080F328
:100130001488704700890008DFF818C0EFF30583C2
:100140001B0618BF6047EFF31483DB0708BF604747
:1001500000DF7047DD6C0008DFF818C0EFF305839F
:100160001B0618BF6047EFF31483DB0708BF604727
:1001700000DF7047CD6E0008EFF30980816911F848
:10018000021CF1B990E80F10E047EFF3098C8CE8FE
:100190000700144B93E8060091420FD039B12CE9C7
:1001A000F00FC1F828C00CB407F052FA0CBC1A606A
:1001B000D2F828C0BCE8F00F8CF309886FF0020E6B
:1001C000704710B5084A1268914209D8074C54F894
:1001D000214090E80F10A047EFF3098C8CE80F0046
:1001E00010BD00009C000020900900089009000844
:1001F00007F002F90C4B93E80600914210D0EFF3A0
:10020000098C2CE9F00FC1F828C00CB407F020FAD3
:100210000CBC1A60D2F828C0BCE8F00F8CF3098837
:100220006FF0020E704700009C00002007F0D8FA23
:10023000E0E7000006F098FC07F0D2FADAE70000E9
:100240000648804706480047FEE7FEE7FEE7FEE770
:10025000FEE7FEE7FEE7FEE7FEE7FEE7693D000892
:10026000ED000008202A04DB203A21FA02F00021E8
:10027000704721FA02F3D040C2F1200291400843B6
:100280001946704740EA01039B0703D009E008C9FB
:10029000121F08C0042AFAD203E011F8013B00F84B
:1002A000013B521EF9D27047D2B201E000F8012B97
:1002B000491EFBD270470022F6E710B513460A46E6
:1002C00004461946FFF7F0FF204610BD30B505463D
:1002D0002A460B4612F8010B13F8014B08B1A04255
:1002E000F8D01CB1002802D06D1CF1E7284630BDC3
:1002F000421C10F8011B0029FBD1801A704730B551
:1003000005460020034600E05B1C934205D2EC5CEE
:10031000C85C201A01D1002CF6D130BD2DE9FE4F6A
:10032000804681EA0300C00F0C46009021F0004196
:1003300023F00045B8EB0200A94105D24046214612
:1003400090461C460B46024623F00040104347D01F
:10035000270DC7F30A00C3F30A510290401A019017
:1003600040286BDAC3F3130040F4801B00989246D8
:1003700020B10023D2EB030A63EB0B0B0198594623
:10038000C0F14002504600F0FEF906460D465046C8
:100390005946019A00F006FA10EB0800614100246A
:1003A00087EA115284EAE7731A4340D0009A62B395
:1003B000019A012A4FEA075215DC001B61EB02018A
:1003C0004FF0004202EA0752CDE90042001C41F51D
:1003D000801132462B4600F006FA03B0BDE8F08FDC
:1003E00040462146F9E7001B61EB0201001C41F584
:1003F000801300185B412018A2F5001747EB03019A
:1004000040EAD570B6196D4111E06D084FEA360625
:1004100045EAC0754FEA0752001B61EB0201001C60
:1004200041F5801149084FEA300000195141324628
:100430002B4603B0BDE8F04F00F0C6B9009801228A
:1004400040000023D0EB020263EBE07300982146EA
:100450004FEAE074B8EB000061EB0401E9E783F0D8
:1004600000435BE781F0004158E72DE9FE4F81EA48
:10047000030404F0004421F0004100944FF0000B0D
:1004800023F0004350EA01045ED052EA03045BD03B
:10049000C3F30A54C1F30A552C44A4F2F334019473
:1004A000A0FB0254C1F3130141F48011C3F3130301
:1004B00043F4801301FB024400FB034E840A970AB5
:1004C00044EA815447EA8357A4FB076802958D0AE2
:1004D00005FB07854FEA932C04FB0C542705029D6E
:1004E0004FEA065847EA1637B5EB08056EEB070CDE
:1004F000870E920E47EA811742EA8312A7FB020198
:10050000B6EB0B0164EB00042B0D43EA0C335E18D1
:1005100044EB1C50DA465146E7FB0201C5F31304D5
:100520004FEA0B3343EA14534FEA0432019C43EA87
:100530000603A4F10C040294009CCDE900B400F081
:1005400052F903B0BDE8F08F00200146F9E72DE92C
:10055000F04D81EA030404F0004B21F000451446FD
:100560004FF0000A23F0004150EA050220D054EA7F
:1005700001021DD0C5F30A570246C5F31303C1F3A8
:100580001300C1F30A5640F4801543F48013A7EB1F
:100590000608101BD64608F2FD3873EB050002D39F
:1005A00008F1010801E092185B41B8F1000F03DA8D
:1005B00000200146BDE8F08D00204FF48011064672
:1005C00084460EE0171B73EB050705D3121B63EB84
:1005D000050306434CEA010C49084FEA3000921823
:1005E0005B4150EA0107EDD152EA030012D082EAE2
:1005F000040083EA0501084305D0101BAB4106D275
:100600000122002306E000224FF0004302E06FF0D9
:10061000010253101AEB06004CEB085110EB0A00D4
:1006200041EB0B01BDE8F04D00F0CEB870B521F004
:10063000004303430CD0C1F30A550024D5EB040555
:1006400064EB0403D617AD1AB34102DB0020014668
:1006500070BD201841EB025170BD0EB5C10F80EA8C
:10066000E0700844CA07002140F233438DE80E00D1
:100670000A460B4600F0B7F803B000BD0EB540F2D5
:10068000334102910021CDE900110A460B4600F0EA
:10069000AAF803B000BDC1F30A5210B5C1F31301AB
:1006A00040F2FF3341F480119A4201DA002010BD7C
:1006B00040F233439A42A2F2334203DC5242FFF744
:1006C000D1FD10BD904010BD30B5041E71F1000485
:1006D00004DB4FF00044404264EB0101141E73F14F
:1006E000000405DB1C464FF00043524263EB040359
:1006F000994208BF904230BD30B50B4601460020FC
:100700002022012409E021FA02F59D4205D303FAD3
:1007100002F5491B04FA02F52844151EA2F1010254
:10072000F1DC30BD2DE9F05F0546002092469B4686
:1007300088460646814640241BE0284641464746F7
:100740002246FFF78FFD53465A46C01A914110D3F7
:1007500011461846224600F016F82D1A67EB0108DC
:100760004F4622460120002100F00DF817EB00094A
:100770004E41201EA4F10104DFDC484631462A46E2
:100780004346BDE8F09F202A04DB203A00FA02F13C
:10079000002070479140C2F1200320FA03F319436F
:1007A00090407047202A06DBCB17203A41FA02F02E
:1007B00043EAE07306E041FA02F3D040C2F12002BE
:1007C000914008431946704710B5141E73F1000498
:1007D00008DA401C41F1000192185B411A4301D133
:1007E00020F0010010BD2DE9F04D92469B4611B15D
:1007F000B1FA81F202E0B0FA80F220329046FFF7BF
:10080000C2FF04460F4640EA0A0041EA0B01534684
:100810005A46084313D0114653EA010019D0C8F1D3
:1008200040025046FFF71EFD05460E46504659460B
:100830004246FFF7A8FF084305D0012004E0204608
:100840003946BDE8F08D0020054346EAE0762C43AA
:1008500037430A986305E40AA0EB08000022FD0A6A
:1008600044EA47540A3002D500200146E9E7010571
:1008700010196941DDE9084500196941BDE8F04DED
:10088000A2E700002DE9F041054621F000400C46AA
:10089000284309D0C4F30A5040F23341884205DDB1
:1008A00028462146BDE8F0812846FBE740F2FE31AC
:1008B000884210DC0CDB4FEA043040EA155050EA65
:1008C000053105D0104804F0004101430020E9E75C
:1008D00000200146E6E7A0F233404642C6F140025E
:1008E00028462146FFF74FFF0746884628462146FF
:1008F0003246FFF7B7FC43463A46FFF765FF3246FC
:10090000BDE8F041FFF73FBF0000F03FC1F30A52DE
:10091000C1F3130140F2FF3341F480119A4202DA2D
:1009200000200146704740F233439A42A2F233421C
:1009300002DC5242FFF796BCFFF725BF30B5041E1C
:1009400071F1000404DB4FF00044404264EB01010C
:10095000141E73F1000405DB1C464FF000435242A5
:1009600063EB04038B4208BF824230BD064C074D47
:1009700006E0E06840F0010394E80700984710346F
:10098000AC42F6D3FFF7B6FBD4890008F48900081F
:1009900000000000FEE7000070B5002400F02AF817
:1009A0004FF40045124E04E0641CE4B2012000F054
:1009B000E5F82946304600F091FB10B1642CF3D3E2
:1009C0000FE0642C0DD2002404E0641CE4B201208A
:1009D00000F0D4F82946304600F080FB18B1642CB2
:1009E00004D3012070BD642CEFD3FAE7002070BD62
:1009F000001001401FB50020019003904FF400400B
:100A00000090012002906946014800F077FA1FBD6E
:100A1000001001407FB500200B4D00900190029026
:100A200002464FF4004403902146284600F063FB41
:100A300001210220CDE90210CDE900416946284696
:100A400000F05CFA7FBD00000010014070B5FFF7B8
:100A5000E1FF0A4D4FF4004400222146284600F0F1
:100A60004AFB142000F038FA01222146284600F003
:100A700042FBBDE870401E2000F080B8001001402D
:100A800070B54FF40045134E04E0641CE4B201203D
:100A900000F074F82946304600F020FB08B1642CC1
:100AA000F3D3002404E0641CE4B2012000F066F8F3
:100AB0002946304600F012FB08B9642CF3D32820F5
:100AC00000F05CF82946304600F008FB002800D012
:100AD000012070BD0010014070B5002004464006A2
:100AE000050EFFF7CDFF641C2843E4B2082CF6D3B3
:100AF00070BD2DE9FC410D460646FFF7A7FFFFF745
:100B00004BFF10B10120BDE8FC8100246F46FFF7C8
:100B1000E3FF3855641CE4B2052CF8D39DF80010AF
:100B20009DF801009DF803300A189DF80200034467
:100B30001A449DF804309A4201D129703070002087
:100B4000E1E70000014800F0B7B800007C3C00205D
:100B500030B590F840500124AC40C56B6C6004681F
:100B600063604368102B036803D099600068C2601B
:100B700030BD9A600068C16030BD704770B5084CE8
:100B80000546002021684862204601F039F92068B6
:100B9000416AA942FCD9BDE87040014801F058B94A
:100BA000A43B002072B6FEE7094A002152F831301A
:100BB000834208D802EBC1039B68834203D902EB4E
:100BC000C10000797047491CC9B21529EED3FEE770
:100BD000E887000810B590F821100022022905D0FE
:100BE0000421816380F82020012010BD01680B687A
:100BF00023F00E030B6001680B6823F001030B6008
:100C000090F84030C46B012101FA03F3636080F86F
:100C1000211080F82020104610BD000010B590F87B
:100C200021100024022903D00421816301243DE026
:100C300001680A6822F00E020A6001680A6822F060
:100C400001020A601A4A0168914201D1012121E0A2
:100C5000174A1432914201D110211BE0144A283264
:100C6000914201D1891515E0114A3C32914201D1DE
:100C700089140FE00E4A5032914202D14FF4803174
:100C800008E00B4A6432914202D14FF4801101E036
:100C90004FF08071064A083A5160012180F8211016
:100CA000002180F82010416B01B18847204610BD1B
:100CB00008000240806B70472DE9F05FC16B0C6843
:100CC00001680B68D0F840C0042202FA0CF2494DCA
:100CD000DFF824A1494E4A4FDFF828B1DFF828E1B8
:100CE00022422CD05A072AD50A68920603D40A68F1
:100CF00022F004020A600168A94201D1042219E02D
:100D0000514501D1402215E0B14202D14FF4806239
:100D100010E0B94202D14FF480420BE0594502D1B4
:100D20004FF4802206E0714502D14FF4800201E0C9
:100D30004FF080622F4908394A60C16A3BE04FF0AA
:100D4000020808FA0CF818EA040F4FF000094FF0F7
:100D5000010235D05FEA837832D50B689B0605D453
:100D60000B6823F00A030B6080F821200168A94278
:100D700001D1022219E0514501D1202215E0B142F2
:100D800002D14FF4007210E0B94202D14FF4005288
:100D90000BE0594502D14FF4003206E0714502D113
:100DA0004FF4001201E04FF00072124908394A6016
:100DB00080F82090816A00291AD0BDE8F05F0847CA
:100DC000082505FA0CF5254212D01B0710D50B6833
:100DD00023F00E030B6090F84010C36B02FA01F190
:100DE0005960826380F8212080F82090016BE2E74F
:100DF000BDE8F09F080002401C00024030000240A5
:100E000044000240580002406C00024030B528B354
:100E100008C8134914221944B1FBF2F18900C163D7
:100E200010498163022141771A6843F6F0718A43C1
:100E3000D0E900142143D0E902452C432143046941
:100E400021434469214384692143114319600021EE
:100E50004163012242770177084630BD012030BD51
:100E6000F8FFFDBF0000024070B5044690F8200076
:100E7000002501280CD0012084F8200094F821607E
:100E80000020012E06D084F820000225284670BDDF
:100E9000022070BD022684F82160A06320680668E5
:100EA00026F0010606602046FFF752FEE06A0028A1
:100EB0002068016802D041F00E0106E021F0040133
:100EC00001602068016841F00A0101602068016842
:100ED00041F001010160D9E770B5044600F010F956
:100EE0000546601C02D004480078044400F008F96C
:100EF000401BA042FAD370BD800000202DE9F84FBE
:100F0000DFF8B8910024A9F1040B23460F2709F15B
:100F1000040AABF1040EC9E00125A5402A40AA420B
:100F20007DD1674ED1F804C0ACEB0608B44532D091
:100F300014DCBCF1030F3AD009DCBCF1000F2AD05D
:100F4000BCF1010F1CD0BCF1020F31D11DE0BCF18E
:100F5000110F17D0BCF1120F2AD119E0B8F5881F74
:100F600019D006DCB8F5803F15D0B8F5801F1FD129
:100F700011E0B8F5001F0ED0B8F5041F18D10AE033
:100F8000CB6815E0CB681B1D12E0CB6808330FE07F
:100F9000CB680C330CE08B682BB1012B4FF00803AE
:100FA00003D0456104E0042302E0056100E0002372
:100FB000FF2A01D8064601E000F104064FEA840545
:100FC00001D9A5F12005D6F8008007FA05FC28EA2A
:100FD0000C0803FA05F548EA0508C6F800804D68D4
:100FE000ED0062D5374DAE6946F00106AE61AD69E0
:100FF00024F0030605F001050095334D06EB050CC2
:10100000DCF80850A607360F07FA06F825EA0805A7
:10101000DFF8B880404503D14FF0000817E044E006
:10102000DFF8AC80404502D14FF001080FE0DFF857
:10103000A480404502D14FF0020808E0DFF8988014
:10104000404502D14FF0030801E04FF0040808FAD0
:1010500006F848EA0508CCF808804D68D9F8006021
:10106000ED024D4601D5164300E096432E604D68D3
:10107000DAF80060AD02554601D5164300E096430C
:101080002E604D68DBF80060AD035D4601D5164368
:1010900000E096432E604D68DEF80060ED03754673
:1010A00001D5164300E096432E60641C0D682A4665
:1010B000E5407FF431AFBDE8F88F0000080401403F
:1010C0000000111000100240000001400008014023
:1010D000000C0140001001400014014080680840ED
:1010E00000D001207047C26821EA02030A4043EAA7
:1010F0000241016170470AB1016170470904FBE7D1
:10110000014800687047000098000020074810B5AB
:10111000016841F010010160032000F07DF801201A
:1011200000F006F800F024F8002010BD0020024076
:1011300070B50D4D04464FF47A712878B1FBF0F08C
:101140000A490968B1FBF0F000F0CFFD48B9102C56
:1011500007D200222146501E00F03EF800206C60AD
:1011600070BD012070BD0000800000208C000020B8
:10117000104808B5816941F001018161816901F080
:1011800001010091C16941F08051C161C06900F065
:1011900080500090062000F03FF801210022C81E78
:1011A00000F01AF80448416821F0E06141F0007154
:1011B000416008BD0010024000000140002809DB2A
:1011C00000F01F02012191404009800000F1E02061
:1011D000C0F8001170470000F0B40E4B1B680C46BD
:1011E000C3F30223C3F10705042D00D90425191DFB
:1011F000072901D2002300E0DB1E012606FA05F1D3
:10120000491E214099409E40761E16403143F0BC55
:1012100003F09CB90CED00E0064900F007020868F5
:101220004FF6FF03184040EA0220034A10430860CB
:10123000704700000CED00E00000FA052DE9F047D2
:101240000F46050061D0434E306800F00700B842F9
:1012500009D2306820F0070038433060306800F071
:101260000700B84251D128683B4C810712D540078E
:1012700003D5606840F4E06060602878000703D51B
:10128000606840F4605060606068A96820F0F00019
:10129000084360602878C00728D06868012810D00B
:1012A0002168022810D0890700292EDA616821F010
:1012B000030101436160FFF723FF804641F2883953
:1012C0000DE021688903EFE78901EDE7FFF718FFDB
:1012D000A0EB0801494502D90320BDE8F08760680A
:1012E000696800F00C00B0EB810FEFD1306800F0BE
:1012F0000700B8420BD9306820F00700384330604F
:10130000306800F00700B84201D00120E5E72878F6
:10131000400705D56068E96820F4E0600843606034
:101320002878000706D56068296920F4605040EAF3
:10133000C100606000F038F86168084AC1F3031129
:10134000515CC8400649086006480068FFF7F0FE97
:101350000020C2E70020024000100240558900082A
:101360008C0000208400002004480549006849687A
:10137000044AC1F30221515CC84070478C00002030
:101380000010024065890008044805490068496862
:10139000044AC1F3C221515CC84070478C00002050
:1013A00000100240658900080E4A51680E4801F09D
:1013B0000C03042B11D0082B0FD10C48C1F383432D
:1013C000C903C05C0AD55168084AC1F34041921E66
:1013D000515C054A5043B0FBF1F070470449484363
:1013E000704700000010024000127A004589000892
:1013F00000093D002DE9F84F040070D02078C04D61
:10140000C00749D06868C0F38100012807D0686828
:10141000C0F38100022809D16868C00306D5286896
:10142000800339D560680028E7D035E06068B0F502
:10143000803F0BD010B1B0F5A02F11D0286820F458
:1014400080302860286820F4802002E0286840F47A
:1014500080302860606890B1FFF752FE06460AE0CF
:10146000286840F480202860F0E700BFFFF748FEBE
:10147000801B642873D828688003F7D50CE0FFF739
:101480003FFE064605E000BFFFF73AFE801B6428DA
:10149000F0D828688003F7D420789A4E80074FF060
:1014A00001094FF0000839D5686810F00C0F07D01B
:1014B0006868C0F38100022809D16868C00306D4B7
:1014C0002868800714D52069012808D110E0206918
:1014D000B0B1C6F80090FFF713FE074605E00AE139
:1014E000FFF70EFEC01B0228C4D828688007F7D576
:1014F0002868616920F0F80040EAC10028600DE02A
:10150000C6F80080FFF7FCFD074604E0FFF7F8FD92
:10151000C01B022823D828688007F7D4207800074A
:101520002CD57948A169D9B1C0F80090FFF7E8FD42
:10153000074604E0FFF7E4FDC01B02280FD8686AE5
:101540008007F7D571484FF4FA510068B0FBF1F00D
:10155000009000BF0098411E0091FAD20EE080E09A
:10156000C0F80080FFF7CCFD074604E0FFF7C8FD98
:10157000C01B022875D8686A8007F7D42078400716
:1015800060D5E8690027C00008D4E86940F08050C1
:10159000E861E869012700F0805000905C4801682C
:1015A000C90513D40168834641F480710160FFF7D7
:1015B000A7FD824606E000BFFFF7A2FDA0EB0A00F0
:1015C00064284ED8DBF80000C005F5D5E068012896
:1015D0000AD008B1052813D0286A20F0010028623B
:1015E000286A20F0040002E0286A40F00100286226
:1015F000E06841F2883B98B1FFF782FD82460BE03C
:10160000286A40F004002862EEE700BFFFF778FD8B
:10161000A0EB0A0159455AD8286A8007F6D50CE094
:10162000FFF76EFD824605E0FFF76AFDA0EB0A01B9
:1016300059454CD8286A8007F6D41FB1E86920F0D4
:101640008050E861E06988B36968C1F381010229CB
:1016500044D00228C6F8608004D0FFF751FD04464C
:1016600038E034E0FFF74CFD074604E0FFF748FDA3
:10167000C01B02282BD828688001F7D4206AB0F557
:10168000803F05D16868A16820F400300843686095
:10169000D4E908010843696821F4741108436860BB
:1016A000C6F86090FFF72CFD044606E025E000BF79
:1016B000FFF726FD001B022809D828688001F7D50E
:1016C0001BE000BFFFF71CFD001B022802D903200E
:1016D000BDE8F88F28688001F4D40EE00128F7D027
:1016E0006868226A00F48031914204D1616A00F492
:1016F0007010884201D00120EAE70020E8E70000EE
:101700000010024000004242800442428C0000204F
:101710000070004070B5040009D0606A002540B137
:1017200025616561A56294F8510040B10CE001208B
:1017300070BD6068B0F5827FF4D0E561F2E784F8AF
:101740005050204600F040F8022084F851002068F4
:10175000016821F040010160A088218900F48270B5
:1017600001F404410843A18901F400610843217C8C
:1017700001F002010843217D01F001010843218BA2
:1017800001F400710843217F01F03801084394F807
:10179000201001F080010843218D01F4005108431D
:1017A00021680860A069042101EA104021684860AE
:1017B0002068C16921F40061C1616565012084F878
:1017C0005100002070BD000030B585B000240094A9
:1017D00001940294039400681449884223D1144868
:1017E000816941F480518161816901F480510491E2
:1017F000816941F00401816180690E4D00F00400AF
:101800000490A020009002200190032003906946DC
:101810002846FFF773FB4020CDE9000469462846BF
:101820000294FFF76BFB05B030BD000000300140B3
:1018300000100240000801402DE9F84F044690F8DE
:101840005100984616460F460025012801D0022572
:1018500098E060684FF0040BB0F5827F01D1A0687A
:10186000F8B194F85000012826D04FF0010984F80F
:101870005090FFF745FC8246002F7FD0002E7DD090
:1018800084F851B000206065A763A687E6872063CF
:10189000A086E08620646064A068B0F5004F0DD09B
:1018A00016E084F851B013460A462046CDF8008071
:1018B00000F024F9BDE8F88F0220FBE720680168FA
:1018C00021F0400101602068016821F4804101603D
:1018D00020680168490603D4016841F040010160B5
:1018E000E068D8B13BE020688168C90709D0007B77
:1018F000A16B0870A06B401CA063E08F401EE087C6
:101900000CE0FFF7FDFBA0EB0A01414503D3B8F162
:10191000FF3F03D006E0B8F1000F03D0E08F0028AE
:10192000E1D11FE003252BE020688168C90709D0B9
:10193000C068A16B0880A06B801CA063E08F401E74
:10194000E0870CE0FFF7DCFBA0EB0A01414503D385
:10195000B8F1FF3F03D0E5E7B8F1000FE2D0E08F28
:101960000028E1D152464146204601F0FDF808B179
:1019700020206065606D00E000E008B1012501E015
:1019800084F85190002084F85000284692E72DE911
:10199000F84F044690F850000026984615468A46AF
:1019A00001280CD0012784F85070FFF7A9FB81466D
:1019B00094F85100B346012804D002269AE0022090
:1019C000BDE8F88FBAF1000F6FD0002D6DD0032065
:1019D00084F85100C4F854B0C4F830A0A586E58658
:1019E000C4F838B0A4F83CB0A4F83EB0C4F844B091
:1019F000C4F840B0A068B0F5004F09D12068016874
:101A000021F0400101602068016841F480410160DB
:101A100020680168490603D4016841F04001016073
:101A2000E068B0F5006F606803D058B3012D29D08D
:101A300049E008B1012D1FD1206B21680088C860E2
:101A400006E020688168890709D5216B0988C16093
:101A5000206B801C2063E08E401EE0860CE0FFF7C8
:101A60004FFBA0EB0901414503D3B8F1FF3F03D081
:101A700006E0B8F1000F03D0E08E0028E1D125E0A8
:101A8000032635E0206B21680078087306E02068A3
:101A9000816889070AD5216B09780173206B401C86
:101AA0002063E08E401EE0860DE01FE0FFF728FB7C
:101AB000A0EB0901414503D3B8F1FF3F03D0DFE7B5
:101AC000B8F1000FDCD0E08E0028E0D14A46414654
:101AD000204601F077F808B120206065A06818B9A9
:101AE0002068C16880680090606D08B1012601E03F
:101AF00084F8517084F850B0304661E72DE9FF4F0B
:101B000081B0044690F8500000260E9F1D46934673
:101B10004FF0010901280FD04FF0010A84F850A0BE
:101B2000FFF7EEFA804694F85100616801280DD065
:101B3000B1F5827F08D103E0022005B0BDE8F08F47
:101B4000A16809B9042801D00226C9E0029800283A
:101B500065D0BBF1000FFBD0002DF9D094F85100F7
:101B6000042802D0052084F8510000206065C4F8E4
:101B700038B0E587A58702992163E586A5862064AC
:101B8000606420680168490603D4016841F040019F
:101B90000160E068B0F5006F606803D0F0B3012D1C
:101BA00047D081E008B1012D3CD1206B216800882D
:101BB000C860206B801C2063E08E401EE08631E010
:101BC0002068816889070FD5E18E69B1B9F1010FED
:101BD0000AD1216B0988C160206B801C2063E08ED4
:101BE000401EE0864FF0000920688168C9070CD0CC
:101BF000E18F51B1C068A16B0880A06B801CA0630D
:101C0000E08F401EE0874FF00109FFF779FAA0EB63
:101C10000800B84206D3781C04D001E009E05BE07C
:101C200003265BE0E08E0028CAD1E08F0028C7D1F0
:101C300040E0206B216800780873206B401C206313
:101C4000E08E401EE0862FE02068816889070FD56E
:101C5000E18E69B1B9F1010F0AD1216B09780173E5
:101C6000206B401C2063E08E401EE0864FF0000990
:101C700020688168C9070CD0E18F51B1C068A16BA1
:101C80000870A06B401CA063E08F401EE0874FF0FF
:101C90000109FFF735FAA0EB0800B84202D3781C1F
:101CA00002D0BAE7002FB8D0E08E0028CCD1E08F68
:101CB0000028C9D142463946204600F083FF18B1BA
:101CC0000126202060650BE0A06818B92068C16873
:101CD00080680090606D08B1012601E084F851A091
:101CE000002084F85000304627E710B5401EB0F1C0
:101CF000807F01D3012010BD4FF0E02460610F21EF
:101D0000601702F023FC0020A06107202061002062
:101D100010BD000070B590F83C20012A26D00124A7
:101D200080F83C40022280F83D2003685A689D6894
:101D300022F070060A6832435A600D4B02689A42DC
:101D400008D0B2F1804F05D00A4B9A4202D00A4B1C
:101D50009A4204D1496825F080031943916080F8C4
:101D60003D40002180F83C10084670BD022070BD47
:101D7000002C0140000400400008004010B50400A1
:101D800003D094F83D0010B107E0012010BD002001
:101D900084F83C00204600F01FF8022084F83D0043
:101DA000211D206801F0E2FF012084F8460084F83C
:101DB0003E0084F83F0084F8400084F8410084F835
:101DC000420084F8430084F8440084F8450084F815
:101DD0003D00002010BD000008B50068064988429B
:101DE00008D10648C16941F00401C161C06900F031
:101DF0000400009008BD00000008004000100240F0
:101E000090F83D10012901D001207047022180F88F
:101E10003D1000680B49884208D0B0F1804F05D0D2
:101E20000949884202D00949884204D1816801F0F9
:101E30000701062903D0016841F00101016000207B
:101E400070470000002C01400004004000080040E2
:101E500001680A6A41F211131A4207D10A6A9B10FB
:101E60001A4203D10A6822F001020A60012180F8B7
:101E70003D100020704770B5044690F83C000025E6
:101E8000012817D0012684F83C60022084F83D0028
:101E90002068826822F0770222F47F42826008681C
:101EA000502838D00DDC20284FD005DC90B3102806
:101EB00011D14AE0022070BD302846D040280AD116
:101EC0003BE060282FD070280DD0B0F5805F03D0A4
:101ED000B0F5005F12D0012584F83D60002084F841
:101EE0003C00284670BDCB68D1E90121206801F093
:101EF00073FF2068816841F0770109E0CB68D1E980
:101F00000121206801F068FF2068816841F4804168
:101F10008160E1E719E0CA684968206801F06EFF56
:101F20005021206806E0CA684968206801F077FF00
:101F30006021206801F05AFFCEE7CA68496820682E
:101F400001F05CFF40212068F4E72268014610465A
:101F5000F0E7704770B5044620680C3050E8001F69
:101F600021F4907140E80012002AF5D12068143065
:101F700050E8001F21F0010140E80012002AF5D1CD
:101F8000206B012809D120680C3050E8001F21F097
:101F9000100140E80012002AF5D1206840694FF096
:101FA0000005400615D52068143050E8001F21F0C8
:101FB000400140E80012002AF5D1E06B48B14563CA
:101FC000E06BFEF707FE20B1E06BFEF773FE202802
:101FD00006D0E585202084F842002563002070BDEE
:101FE00010206064032070BD7047000003498842E0
:101FF00003D10021024806F0A7B87047343C002006
:1020000010240020F8B5016804460868CA684B69C6
:1020100010F00F0F4FF000055AD003F0010602F444
:102020009077374365D0C10705D0D10503D5616CE2
:1020300041F001016164410705D5D90703D0616C06
:1020400041F002016164810705D5D90703D0616CB5
:1020500041F004016164010707D502F0200131431A
:1020600003D0616C41F008016164616C00293BD0D0
:10207000800604D5900602D5204602F023F8206899
:102080004069616CC0F3801001F0080101432046F3
:102090002BD001F0E2FF20684069400621D520687E
:1020A000143050E8001F21F0400140E80012002ADF
:1020B000F5D1E06BA8B16D494163E06BFEF7AEFD71
:1020C000002811D0E06B416B01B0BDE8F04008473B
:1020D00083060ED593060CD52046BDE8F84001F0E6
:1020E000F1BF2046FFF780FFF8BDFFF77DFF656475
:1020F000F8BD266B2023012E7CD1C6067AD5D606E4
:1021000078D508684868009048694FF00206400694
:1021100040D5E16B086840680004000CE8D0A28D4F
:102120008242E5D9E085886920282DD020680C30CE
:1021300050E8001F21F4807140E80012002AF5D118
:102140002168143151E8000F20F0010041E800023D
:10215000002AF5D12068143050E8001F21F040011A
:1021600040E80012002AF5D184F842302563206847
:102170000C3050E8001F21F0100140E80012002A46
:10218000F5D1E06BFEF726FD6663A08DE18D401A68
:1021900081B22AE0A08DE18D401A81B2E08D002845
:1021A000A6D00029A4D022680C3252E8000F20F4F7
:1021B000907042E80007002FF5D12068143050E8F5
:1021C000002F22F0010240E80027002FF5D184F80B
:1021D0004230256320680C3050E8002F22F01002B6
:1021E00040E80023002BF5D166632046FFF7B1FEDF
:1021F000F8BDFFE705062BD5150629D594F8410053
:102200002128F5D1A068B0F5805F01D12069B0B177
:10221000206A411C2162216800784860E08C401EE1
:102220000004000CE084E3D12068C16821F0800143
:10223000C1602068C16841F04001C160D8E7206AF0
:102240000088C0F308004860206A801C2062E5E72F
:102250004006CDD55006CBD5CA68204622F04002B4
:10226000CA6084F8413000F021F9C1E75D3F000801
:1022700070B5040004D094F84100002510B106E0C8
:10228000012070BD84F84050204600F023F824203F
:1022900084F841002068C16821F40051C1602046E3
:1022A00001F072FF2068016921F49041016120680A
:1022B000416921F02A0141612068C16841F400515F
:1022C000C1606564202084F8410084F842006563A1
:1022D000002070BDF0B585B00024009401940294F4
:1022E00003940646374F0368374902220320374DCF
:1022F000BB4226D18B6943F480438B618B6903F425
:10230000804304938B6943F004038B6189690390D4
:1023100001F0040104911102CDE90012694628463A
:10232000FEF7ECFD2815CDE9000469462846029425
:10233000FEF7E4FD002211462520FEF74DFF252083
:102340003BE0234FBB423AD1CB6943F40033CB612E
:10235000CB6903F4003304938B6943F004038B616E
:102360008969039001F0040104910421CDE9001270
:1023700069462846FEF7C2FD0820CDE900046946FB
:1023800028460294FEF7BAFD134D1248C5E9000431
:102390008020C5E902402C616C61AC612846EC618B
:1023A000FEF734FD08B1FEF7FDFBF5630022114690
:1023B00026206E62FEF710FF2620FEF7FFFE05B016
:1023C000F0BD00000038014000100240000801404C
:1023D000004400406C0002407C3C002090F84230F9
:1023E000202B01D00220704721B11AB100230363D2
:1023F00001F026BF012070470349884203D1012123
:10240000024805F0A1BE7047343C00201024002093
:1024100070472DE9F843044690F841001F461646E0
:102420000D46202802D00220BDE8F8837DB176B1A8
:1024300000206064212084F84100FEF761FEA6843C
:102440008046E684A068B0F5805F02D003E00120FA
:10245000EAE7206910B12E4600250EE000260CE0C8
:102460008021204601F034FFA0B9AEB116F8010B6F
:1024700021684860E08C401EE084E08C43464FF0C9
:10248000000200970028EBD14FF04001204601F0F8
:102490001FFF30B10320C7E735F8020BC0F3080077
:1024A000E6E7202084F841000020BDE77047FEE702
:1024B0000B4810B5094901600A4981600A49416029
:1024C0000A49C1600A490161002181610948016826
:1024D00003488847BDE8104003F020B8E929000808
:1024E000E0230020E1280008392A0008812900089B
:1024F0002D2900089888000870B516460D46044638
:10250000802804D200200860A008106070BD04F08C
:1025100075F92860401FC440203C34602868801F43
:10252000286070BD2DE9F04F85B00024414800942B
:10253000019402940394816941F0100181618169E1
:1025400001F010010491816941F0200181618169EC
:1025500001F020010491816941F0040181618169E8
:1025600001F004010491816941F0080181618069F1
:10257000012200F00800DFF8C0B05703049039468C
:102580005846FEF7B8FD002210212C48FEF7B3FD97
:102590004FF4806A002251462948FEF7ACFD02261E
:1025A000012500970396CDE9015469465846FEF788
:1025B000A5FC4FF48048DFF88C90CDF80080CDE981
:1025C000019569465846FEF799FCE8038DE831000D
:1025D00069465846FEF792FC1020CDE90005CDE98A
:1025E000024669461548FEF789FCCDF800A003961F
:1025F000CDE9015469461248FEF780FC41F610000F
:1026000000901148CDE9010469460D48FEF776FCBB
:102610000097CDE9019569460948FEF76FFCCDF8B2
:10262000008069460648CDE90145FEF767FC05B024
:10263000BDE8F08F0010024000100140000801408A
:10264000000C014000002110000011100F4810B5CF
:102650000D4901604FF48271416000218160C160C9
:102660004FF400720161C0E905121822C0E9072188
:10267000416281620A21C162FFF74CF8002801D053
:1026800072B6FEE710BD0000003001404C3B002058
:1026900010B586B000241748009401940294039466
:1026A00004941349059401604721C0E901144FF6D1
:1026B000FF71C0E903148461FFF760FB08B172B6D3
:1026C000FEE74FF48050009069460A48FFF7D3FBBD
:1026D00008B172B6FEE7049404A906480594FFF712
:1026E00019FB002801D072B6FEE706B010BD00004D
:1026F00000080040A43B0020FEE700000248002143
:10270000006804F0DBB800003000002070B5064619
:102710000D46102005F09EFC040017D00022E56055
:1027200022601048C4E90126416881B10C6041680B
:1027300061604460C4F80020FFF7E0FF60B11D2134
:10274000C0E90014846000F06DF8204670BD44605C
:10275000046022606260EFE7204600F025F8002068
:1027600070BD00003400002070B50E4D4FF0FF31F9
:10277000286804F0D9F8202811D148680C4618B10F
:10278000816809B120468847207B012803D1206950
:1027900008B105F03FFC2146286804F0B7F8002096
:1027A00070BD00003000002010B5040026D0144990
:1027B0004B68A34202D00A68A24210D10022A34271
:1027C00004D163684B60636803B11A600B68A3426D
:1027D0000DD123680B60216849B14A6007E0616848
:1027E00009B122680A60216809B16268F5E701F061
:1027F000C8FD2046BDE8104005F00CBC10BD00002F
:102800003400002010B5054C002001466060A06037
:10281000034804F063F82060002010BD3000002061
:1028200014870008002804D001460248006804F01C
:1028300086B8704730000020FEE701220221032005
:1028400001F0F4B91FB5012A0DD009A240F2AF136F
:10285000CDE90032CDE90201104B11A214A10320F1
:1028600003F022F81FBD13A240F2AD13F0E7000001
:10287000427574746F6E2052656C65617365642C6B
:102880002053637265656E49443A25643B20436F6B
:102890006E74726F6C49443A256400008D8700089D
:1028A0002E2E5C757365725C6170702E6300000083
:1028B00041505000427574746F6E2050726573738E
:1028C00065642C2053637265656E49443A25643B08
:1028D00020436F6E74726F6C49443A2564000000A7
:1028E0002DE9F84380460F481E461746006B0D46FB
:1028F0008047681D05F0AEFB0580478004460671E1
:102900002A464146401DFDF7BDFC012000900648C7
:102910002346016841F202400A4601F0B9FDBDE8D4
:10292000F883000098880008FC2300201CB5094C9F
:10293000206B804708A18420CDE900010A4B0BA23F
:102940000EA1032002F0B0FFA16B02B00020BDE891
:102950001040084798880008526164696F205278D7
:10296000204552524F520000418700082E2E5C75C0
:102970007365725C6170702E6300000041505000FE
:102980001CB50C4C206B80470BA17A20CDE90001CF
:102990000E4B0FA212A1032002F086FF114890F8FF
:1029A000A400012805D1A16B02B00020BDE81040B1
:1029B00008471CBD98880008526164696F205278EE
:1029C0002074696D656F757400000000358700081C
:1029D0002E2E5C757365725C6170702E6300000052
:1029E00041505000FC2300201CB5084C206B804750
:1029F000A16B0020884706A16B20CDE90001084BA0
:102A000008A20CA1032002F04FFF1CBD988800080B
:102A1000526164696F20547820646F6E6500000015
:102A2000208700082E2E5C757365725C6170702EB5
:102A300063000000415050001CB50748006B804700
:102A400006A17220CDE90001094B0AA20DA10320C5
:102A500002F02AFF1CBD00009888000852616469DA
:102A60006F2054782074696D656F757400000000E4
:102A7000298700082E2E5C757365725C6170702E5C
:102A8000630000004150500030B4B0F803104578A6
:102A90004BBAB0F805108478C27949BA0D2D11DD12
:102AA0000F2D0FD0552D0AD0B12D0BD1012C09D0EF
:102AB000102A07D1427A30BC1846FFF7C3BE30BC9B
:102AC000FFF7BBBE30BC7047002801D0406800470C
:102AD0007047000070B5092000F0AFFA05460620E7
:102AE00000F0ABFA0404072000F0A7FA44EA00243F
:102AF000082000F0A2FA2043FDF7C0FD0022184B89
:102B0000FDF7B3FCFDF7C7FD04460021092001F0E5
:102B100047F83B2000F091FA40F040013B2001F0E3
:102B20003FF83B2000F089FA8006FAD40D4800F007
:102B30006DFB3B2000F081FA40F040013B2001F0AA
:102B40002FF83B2000F079FA8006FAD429460920B4
:102B500001F026F82046BDE8704000F057BB0000A9
:102B600080844E4000A1BC33F8B5044640684FF461
:102B70008273984217D1A0684FF48065B0F5004F7A
:102B800001D0A8420FD12068066826F040060660F2
:102B90006068984207D1A068A84204D100920B4611
:102BA0000022012103E000920B46002280212046F2
:102BB00000F018F8002804D0606D40F02000606537
:102BC0000320F8BD38B50B46009204460022802150
:102BD00000F008F8002804D0606D40F02000606527
:102BE000032038BD2DE9F8431E4691468846044629
:102BF000089DFEF785FA401B351AFEF781FA074655
:102C000025480068C0F3CB30684338E0701C37D0EB
:102C1000FEF776FAC01BA84203D215B1009860B344
:102C20002CE02068416821F0E00141606068B0F567
:102C3000827F0BD1A068B0F5004F02D0B0F5806F55
:102C400004D12068016821F040010160A06AB0F55C
:102C5000005F09D12068016821F4005101602068FB
:102C6000016841F400510160012084F85100002006
:102C700084F850000320BDE8F8830025401E009032
:102C80002068816838EA010004D000214945BDD19F
:102C90000020F0E70121F9E78C00002002490148FB
:102CA000086070474C3B002024260020012070471C
:102CB0000349884201D280207047002070470000FD
:102CC00040DD4A1F0148007970470000242600209B
:102CD0002DE9F34F0100714E81B04FF000000BD091
:102CE00001297DD10024306C2546072853D00828BF
:102CF00054D0092857D154E0B246F069FDF7BEFC24
:102D000081460E460298FDF7B9FC074688463020FA
:102D100000F093F930F0F9004FF0000401D0604D5D
:102D200000E00025272000F088F920F0F800BAF82C
:102D30002010401C0844FDF7A1FC9AF82220012A2B
:102D40004FF0000222D0564BFDF7E8FA22462B4600
:102D5000FDF7E4FA3A464346FDF7E0FA9AF82420F4
:102D6000012A4FF0000213D05FF00003FDF7D6FAFE
:102D70000322FDF75BFC4A463346FDF7E8FB0022E1
:102D8000484BFDF772FB03F05FFF7FE00023DBE7BA
:102D90004FF08043EAE70024434D04E00024434D14
:102DA00001E0434D002456F8447F0120B840FDF770
:102DB00054FC02460B4620462946FDF7C8FB024656
:102DC0000B4600203649FDF7C2FB04460D46F0884D
:102DD000FDF754FC0022374BFDF7A0FA224600E035
:102DE00059E02B46FDF741FB834600917079001DA9
:102DF000FDF744FC82463079884600B10220C0EBE2
:102E00008700FDF73BFC064602988946C0007942E0
:102E100000EB8101214890F84E0001EB00111F48A2
:102E200090F84C0000B11420081A1C30FDF726FC65
:102E300032464B46FDF78BFB02F0DCFB5246434625
:102E4000FDF713FB002207460E461346FDF73CFC38
:102E500002D23846314601E0002001460022164BDE
:102E6000FDF75CFA22462B46FDF7FFFA02460B46B9
:102E700058460099FDF752FA00220A4BFDF7F5FA81
:102E80000E4A0F4BFDF74AFA03F06EF803B0BDE8A7
:102E9000F04FFDF700BCBDE8FE8F000024260020A7
:102EA0000000F03F00408F408084FE4080840E414F
:102EB00080841E4100001140000020402B8716D95D
:102EC000CEF7EF3F70B519494860FFF7E7FE01F014
:102ED00033F81749174800F0D9FF16481449443011
:102EE00000F0D4FF13481249883000F0CFFF00F003
:102EF000FDF8FFF7EFFD002000F0F4F90E4D00247F
:102F000004EB4406A85D00F0BBF9701981784078A5
:102F100000F046FE641CE4B2102CF1D3012000F056
:102F2000AFF9044900206039087170BD54000020D9
:102F3000752F000884260020B887000870B5144655
:102F40000E46054600F09CF9304600F05FF905207A
:102F500000F0C8F90120FDF7BFFF284600F0A6F8F1
:102F6000054600F051FCA54201DD002070BD0120A6
:102F700070BD000070B51F4D00241F4E2879012838
:102F80000BD0022835D12C717068002831D04068F0
:102F900000282ED0BDE8704000476879B8B985F8A0
:102FA0002C4085F82D402C87EC860B213E202635C1
:102FB00000F0F6FD10213F2000F0F2FD15F8260983
:102FC000012809D00B482C71E83000F095FF70689B
:102FD00000280ED0C068DBE70D2000F02EF840F08E
:102FE00040010D2000F0DCFD0248E83000F069FFF0
:102FF000EDE770BD242600205400002070B50025A8
:10300000012000F03DF9FF21112000F0C9FD05204D
:1030100000F068F900240120FDF75EFF2C2000F08D
:103020000CF800F00100A040641C0543E4B2202C21
:10303000F1D300F0E9FB284670BD08B501226946CE
:1030400000F004F89DF8000008BD00002DE9F743EA
:10305000134E17468846002210213046FEF74BF8E3
:103060009DF800000F4C00F07F008DF800004FF439
:103070009673012269462068FEF789FC0A4D4FF4D9
:10308000FA733A46287041462068FEF7D5FB28704F
:10309000012210213046FEF72EF8BDE8FE83000025
:1030A00000080140242600205400002010B520B163
:1030B000012808D04FF0FF3010BD1120FFF7BDFFF1
:1030C0004008404210BD07480749806888424FF0D9
:1030D0001B0003D9FFF7B1FF9D3810BDFFF7ADFF0F
:1030E000A43810BD2426002040DD4A1F70B5094DCC
:1030F0004FF48064002221462846FDF7FCFF0120A2
:10310000FDF7EAFE21462846BDE870400122FDF7A2
:10311000F2BF0000000C014073B5394C0546002099
:10312000617911B1012967D12AE0002020879DF83B
:103130000410E18694F8220050B1322000F030FDF6
:103140009DF80420501E3F2807D884F83B200BE050
:10315000012101A800F05AFDF2E729462948FDF7B0
:1031600091F8202084F83B0094F83B10284628343E
:1031700000F04CFD208AE17C0844208220683BE07E
:1031800094F8510001284FF0330021D0FFF755FF8C
:1031900000F0BE013320491C00F002FD1D213B2040
:1031A00000F0FEFC9DF8041084F85C10222000F072
:1031B000F7FC00210E2000F0F3FC00210D2000F0B0
:1031C000EFFC0120FFF739FF30F0F80009D00DE0E7
:1031D000FFF733FF00F0BE01332000F0E1FC1921BE
:1031E000DDE700F023FB0120FDF776FE9DF80410DB
:1031F000284600F00BFD606D00F022FB7CBD000056
:103200002426002024250020704770470D4910B562
:103210008860FDF733FA00220B4BFDF798F9FDF7B4
:103220003AFA0446C0F30741062000F0B9FCC4F3A3
:103230000721072000F0B4FCE1B2BDE810400820EF
:1032400000F0AEBC2426002080844E4070B50D46B0
:10325000044600F015F824B1012C0DD12946232095
:1032600006E0064890F82200002805D129463220C1
:10327000BDE8704000F094BC70BD00002426002022
:10328000174910B54A79824228D0487101284FF079
:1032900000000FD000F026F80120FFF7CEFE00F06E
:1032A0007F01012000F07CFC0021402000F078FC30
:1032B00030210EE000F016F80120FFF7BEFE40F0CE
:1032C0008001012000F06CFC0021402000F068FC2F
:1032D0000021BDE81040412000F062BC10BD00009C
:1032E0002426002010B5040013D00020FFF78DFF26
:1032F000032C12D05FF00000FFF786FF0120FFF7DC
:103300009CFE00F0F8012143BDE81040012000F0D0
:1033100047BC0120FFF779FFF0E70120ECE7000050
:1033200010B504460648210AA0F84A40202000F0C3
:1033300037FCE1B2BDE81040212000F031BC0000B4
:10334000242600202DE9F0419A4C0546002660799C
:1033500010B1012824D124E014F8266F4020FFF793
:103360006CFE00F0030040F00C01402000F018FC5F
:103370004120FFF762FE40F0C101412000F010FC47
:103380003520FFF75AFE00F03F0020751E210D206A
:1033900000F006FC0020A071E07160822082263CD3
:1033A00096E094F8510001284FF0330025D0FFF744
:1033B00044FE00F0BE013320491C00F0F1FB1D214A
:1033C0003B2000F0EDFB206C09284FF031007CD24F
:1033D000FFF733FE00F07F01312000F0E1FB002118
:1033E000302000F0DDFB206C092855D2DFE800F02A
:1033F0000E18222C364050505000FFF71EFE40F0B1
:103400004101332000F0CCFB1921D9E748212F20BE
:1034100000F0C6FBA068FDF731F90022664B30E0F2
:1034200044212F2000F0BCFBA068FDF727F9002203
:10343000624B26E044212F2000F0B2FBA068FDF78C
:103440001DF900225E4B1CE044212F2000F0A8FB58
:10345000A068FDF713F900225A4B12E044212F20F7
:1034600000F09EFBA068FDF709F90022564B08E02A
:1034700044212F2000F094FBA068FDF7FFF8002204
:10348000524BFCF74BFFFDF706F9FFF7BFFE03E0D9
:1034900040212F2000F084FB94F84F0094F85260F4
:1034A000012831D01F21112000F07AFB4020FFF7C6
:1034B000C4FD00F03F01402000F072FB00210F200E
:1034C00000F06EFB00210D2000E017E000F068FB2B
:1034D0004FF480713E48FCF7EEFE0120207145B1AB
:1034E00034482946A43000F0EAFC3248A43000F009
:1034F000E8FC607990B1EEB3052054E0FFF79DFD44
:1035000040F080013120C5E71D21112000F048FB6B
:103510004020FFF792FD00F03301CCE70520FFF7D4
:10352000E1FE002E43D1A046E069FDF7A7F805466D
:103530000E462720FFF781FD20F0F800FDF79EF8EA
:103540000022244BFCF7EAFE07460C46B8F82000A0
:10355000FDF794F83A462346FCF7E0FE00221E4BA6
:10356000FCF7DCFE0322FDF761F82A463346FCF740
:10357000EEFF00E016E00022184BFCF776FF02F0A9
:1035800039F80022164BFCF7C9FEFDF784F8014616
:103590000848E83000F093FCBDE8F0410548E83009
:1035A00000F08FBC0620BDE8F041FFF79BBEBDE8F0
:1035B000F0810000242600200082BE40005AC44052
:1035C0000082CE408057D4408084DE40C058E44022
:1035D000242500200000F03F0000244000408F40E0
:1035E000000010402DE9FF4F81B09946DDE9116AD6
:1035F000DDE90F7B14460D46DDF84C800198FFF79E
:103600003FFE7E483A0A0199009221B101297DD1FD
:10361000032D4ED9FEE740F8145F84600E99416097
:10362000867380F80FA080F810801699417417995E
:10363000817487812046FDF721F802460B46002061
:103640006F49FCF784FFFDF726F884B2210A0220B7
:1036500000F0A6FAE1B2032000F0A2FA2846FDF736
:10366000A3FA0146122000F09BFA0E98FDF79CFA8F
:103670000146132000F094FA2520009900F090FAFA
:10368000F9B2262000F08CFA0EB1514600E0FF217D
:10369000322000F085FA3020FFF7CFFC00F06F00F9
:1036A0000EB1002100E08021084340EA08113020DB
:1036B00092E0AD1DE0E910540C2C80F80990478190
:1036C000067380F80DA080F80E801499C1731599C7
:1036D0000174169941741799817401D90C2402E080
:1036E000062C00D206244548012180F848101D20F0
:1036F000FFF7A3FC290141EA49003043C1B21D2074
:1037000000F04EFA1E20FFF798FC00E073E000F096
:10371000080040EA041141EA8800032202EA1B2162
:103720000843C1B21E2000F03BFA2620FFF785FCBB
:1037300000F0F701314890F8480041EAC000C1B2FA
:10374000262000F02DFA0BF0FF011F2000F028FAD0
:103750002020009900F024FAF9B2212000F020FA8C
:103760001EB15146222000F01BFA244E96F84F005D
:1037700001280CD14420FFF760FC40F08001442078
:1037800000F00EFA96F85010242000F009FA092DE6
:1037900002D0032136200FE01A49B06888424FF06A
:1037A00002014FF0360003D900F0FAF9642102E07B
:1037B00000F0F6F97F213A2000F0F2F9062C4FF0E4
:1037C00031000ED0FFF739FC00F0F8013120C91CA0
:1037D00000F0E6F90A21372005B0BDE8F04F00F00F
:1037E000DFB9FFF72AFC00F0F8013120491D00F095
:1037F000D7F90C21EFE705B0BDE8F08F24260020B3
:1038000080847E4140DD4A1F10B5074800F074FBFC
:103810000548443800F070FB0020FFF763FD0249C3
:103820000020A439087110BDC826002010B5012061
:10383000FFF758FD01490020087110BD2426002023
:1038400010B50146254800F03AFB244C603C6079F5
:1038500010B101282DD119E04020FFF7EEFB00F058
:10386000030040F01001402000F09AF94120FFF7DA
:10387000E4FB00F03E01412000F092F93520FFF713
:10388000DCFB00F03F0084F83A0012E094F84F00AF
:10389000012818D0F721112000F082F94020FFF70D
:1038A000CCFB00F03F0000BF40F04001402000F0A2
:1038B00077F902202071094800F003FBBDE81040B1
:1038C0000320FFF70FBDF521112000F069F940201A
:1038D000FFF7B3FB00F03300E6E70000842600208A
:1038E0002DE9FF4F81B09A46DDE910790C46DDF8ED
:1038F00048800E9E0198FFF7C3FC0920FFF79DFB4F
:1039000000904D20FFF799FBDFF84CB20546DBF83D
:103910000800FFF7CDF9009901F07F01084340F05E
:103920007000010636D5112C02DD45F0070502E0D6
:1039300005F0F8052D1DE943490703D0022C0CDAE8
:1039400002240DE0052C01DA052402E0142C00DD30
:10395000142400F0F001601F05E0112C00DD11249B
:1039600000F0F001A01E00F00F000143092000F05C
:1039700017F929464D2000F013F9390A01980091F2
:10398000A8B101287ED15D468BF83C40BAF1030F07
:103990005FD9FEE74FF0FF318C4201DA0C4602E0BE
:1039A0000E2C00DD0E2400F0F001601CDBE78BF82C
:1039B0000C4058460399CBF81C60C0E9041AABF8D8
:1039C00020708BF822908BF8248015998BF82510A5
:1039D0001699CBF828100398FCF750FE00225F4B95
:1039E000FCF7B5FDFCF757FE84B2210A042000F075
:1039F000D7F8E1B2052000F0D3F83046FCF73EFEE0
:103A000002460B4600205649FCF7A1FDFCF743FE99
:103A100084B2210A022000F0C3F8E1B2032000F0D2
:103A2000BFF82520009900F0BBF8F9B2262000F07D
:103A3000B7F83020FFF701FB00F06F00B9F1000F7D
:103A400001D0002100E08021084340EA0811302025
:103A50006FE00AF10604C5E910460F9885F84900A1
:103A6000A5F84A7085F84C90139885F84F00149982
:103A700085F8501085F84E80159985F851101699E3
:103A8000696500E064E00C2E01D90C2602E0062EE8
:103A900000D20626012185F8481001280CD14420C7
:103AA000FFF7CBFA40F08001442000F079F895F858
:103AB0005010242000F074F81D20FFF7BEFA0F9874
:103AC000210141EA400040EA0900C1B21D2000F096
:103AD00067F81E20FFF7B1FA00F00B0040EA06116C
:103AE00041EA8800C1B21E2000F05AF82620FFF7F4
:103AF000A4FA95F8481000F0F70040EAC100C1B2FE
:103B0000262000F04DF82020009900F049F8F9B285
:103B1000212000F045F8062E4FF031000ED0FFF7BF
:103B20008CFA00F0F8013120C91C00F039F80A21A4
:103B3000372005B0BDE8F04F00F032B8FFF77DFA4E
:103B400000F0F8013120491D00F02AF80C21EFE7C0
:103B500005B0BDE8F08F00002426002080844E4090
:103B600080847E4110B50D4C6079002814D0012866
:103B700012D1FA21112000F013F84020FFF75DFA6E
:103B800000F03F01402000F00BF803202071BDE859
:103B900010400720FFF7A6BB10BD00002426002020
:103BA00013B5012201A900F001F81CBD2DE9F7436E
:103BB000134E17468846002210213046FDF79BFA27
:103BC0009DF800000F4C40F080008DF800004FF48D
:103BD0009673012269462068FDF7D9FE0A4D4FF41D
:103BE000FA733A46287041462068FDF7D0FE2870E7
:103BF000012210213046FDF77EFABDE8FE83000069
:103C00000008014024260020540000200A460146F6
:103C10000020FFF7CBBF000001B56E2301226946EB
:103C20000148FEF7F6FB08BD343C002070B50546A0
:103C300016460C46EE20FFF7EFFFB120FFF7ECFF32
:103C40001020FFF7E9FF280AFFF7E6FFE8B2FFF7C9
:103C5000E3FF200AFFF7E0FFE0B2FFF7DDFF3046A9
:103C6000FFF7DAFFFF20FFF7D7FFFC20FFF7D4FFB5
:103C7000FF20FFF7D1FFBDE87040FF20FFF7CCBF6A
:103C80002DE9F04106461F4614460D46EE20DDF8AC
:103C90001880FFF7C1FFB120FFF7BEFF0720FFF735
:103CA000BBFF300AFFF7B8FFF0B2FFF7B5FF280AF5
:103CB000FFF7B2FFE8B2FFF7AFFF0FB1012000E05E
:103CC0000020FFF7A9FF08F00F0040F08000FFF789
:103CD000A3FF200EFFF7A0FFC4F30740FFF79CFFF0
:103CE000C4F30720FFF798FFE0B2FFF795FFFF202E
:103CF000FFF792FFFC20FFF78FFFFF20FFF78CFFFD
:103D0000BDE8F041FF20FFF787BF30B58FB0282115
:103D10006846FCF7D0FA14210AA8FCF7CCFA012176
:103D20000804CDE900100024029402250491CDE995
:103D300007504FF4E01009906846FDF75BFB08B1AF
:103D400072B6FEE70F20CDE90A054FF48060CDE999
:103D50000C4002210AA80E94FDF770FA002801D049
:103D600072B6FEE70FB030BD70470000F0B50268D4
:103D7000164B174C174D4FF08047984205D0B8426C
:103D800003D0A04201D0A84203D122F070064A68B5
:103D90003243984205D0B84203D0A04201D0A84295
:103DA00003D122F44074CA6822434C6922F0800295
:103DB000224302608A68C2620A688262984201D124
:103DC0000969016301214161F0BD0000002C01403F
:103DD000000400400008004010B5846842EA032255
:103DE00024F47F440A432243826010BD826822F09B
:103DF00070020A4342F007018160704710B5036A00
:103E0000046A24F001040462846924F0F00444EAA2
:103E1000021423F00A020A438461026210BD10B545
:103E2000036A046A24F010040462846923F0A00386
:103E300024F4704444EA023243EA011182610162CF
:103E400010BD0000104D4FF0FF363146686802F09B
:103E50006BFD2028F9D10C00F7D060680028F4D061
:103E60002178012906D0022907D0032907D100F0C3
:103E70001DF804E000F029F801E000F041F82146C7
:103E8000686802F043FDE0E74C00002070B50D4685
:103E900004464421FCF70FFA03486560606204F1B0
:103EA0000C00A06270BD0000C92A000810B50446CD
:103EB00000F026F82046BDE8104000F006B801608A
:103EC00070470146012000F023B810B50446806811
:103ED00048B102F0F9FDA06800280CD02168BDE8C7
:103EE000104002F0E5BD2246002104F1240002F05A
:103EF000B9FDA060F0E710BD0146022000F008B84F
:103F0000002804D08068002801D002F0DDBD704791
:103F100070B5084C0D4606460021606802F0CEFCE4
:103F2000010006D00E704D606068BDE8704002F080
:103F300006BD70BD4C00002010B50021054802F000
:103F4000CDFC054C002160600248103802F060FD95
:103F5000206010BDAC8700084C00002010B5406AFE
:103F60000021C185C184FEF73FF810BD70B5446AD9
:103F70002068406994F84110C0F3C0100025212941
:103F800004D118B1E584204600F08EF8206840691D
:103F900094F84210C0F38010222904D118B1E585AD
:103FA000204600F05AF8606C40F010006064204633
:103FB000FEF71AF870BD10B50146406A0968096835
:103FC0004FF0000289062ED4C28501680C3151E8F9
:103FD000003F23F4807341E80034002CF5D10168E0
:103FE000143151E8003F23F0010341E80034002C74
:103FF000F5D10168143151E8003F23F0400341E856
:104000000034002CF5D1202180F84210016B0129E9
:1040100009D101680C3151E8003F23F0100341E859
:104020000034002CF5D14263016B012902D0FEF768
:10403000E3F910BD818DFDF78CFF10BD10B5406A0E
:1040400001214163016B012902D0FEF7E1F910BDA6
:10405000818D4908FDF77DFF10BD01680C3151E8E5
:10406000002F22F4907241E80023002BF5D1016863
:10407000143151E8002F22F0010241E80023002B07
:10408000F5D1016B012909D101680C3151E8002FEC
:1040900022F0100241E80023002BF5D1202180F806
:1040A000421000210163704701680C3151E8002F74
:1040B00022F0C00241E80023002BF5D1202180F836
:1040C0004110704708B590F84210222901D0022013
:1040D00008BD82684FF480539A4201D1016921B131
:1040E000816A9A421BD04AB10AE00268816A52682A
:1040F000C2F308020A80816A891C08E0026972B171
:104100000268526802F07F020A70816A491C81626B
:10411000C18D491E0904090CC18503D01BE002684A
:104120005268F1E70168CA6822F02002CA6001689B
:10413000CA6822F48072CA6001684A6922F00102EA
:104140004A61202180F8421000214163026B012A5C
:1041500003D0FEF751F9002008BD016301680C315E
:1041600051E8002F22F0100241E80023002BF5D186
:1041700001680A68D20602D50A6849680091818DF3
:10418000FDF7E7FEE7E7000070B504460068016947
:10419000E26821F44051114301612169A06808439C
:1041A000616908432168CA6841F20C639A4302437B
:1041B000CA6020684169A26921F4407111434161DC
:1041C0001E492068884202D1FDF7DEF801E0FDF7C4
:1041D000CBF800EBC00101EB0012606864218000A5
:1041E000B2FBF0F3B3FBF1F36FF018067343B2FBCD
:1041F000F0F5B2FBF0F605EB8305322303EB051572
:10420000B5FBF1F5B6FBF1F605F0F00505EB06158B
:10421000B2FBF0F6B2FBF0F0B0FBF1F06FF0180279
:10422000504306EB800003EB0010B0FBF1F0216877
:1042300000F00F002844886070BD00000038014085
:1042400038B58162044682850020134660642222CC
:1042500084F84220E56B1B4AAA62E56B1A4AEA62BF
:10426000E56B1A4A2A63E26B50630A462168E06BE9
:10427000091DFCF7F9FD206801684068009020697D
:1042800048B120680C3050E8001F41F4807140E8CC
:104290000012002AF5D12068143050E8001F41F0C8
:1042A000010140E80012002AF5D12068143050E8DE
:1042B000001F41F0400140E80012002AF5D1002023
:1042C00038BD0000B73F00083D4000086D3F0008C2
:1042D0002DE9F041984617460E460446069D27E014
:1042E000681C25D02DB1FCF70BFFA0EB0800A842FD
:1042F0001ED920680C3050E8001F21F4D07140E82E
:104300000012002AF5D12068143050E8001F21F077
:10431000010140E80012002AF5D1202084F8410074
:1043200084F84200002084F840000320BDE8F081BA
:104330002068006836EA000004D00020B842CFD0E0
:104340000020F3E70120F9E70148FDF75BBE00001C
:10435000EC3B002008B50948FDF754FE074800680B
:104360000168C943C90607D4016840680090BDE8E8
:1043700008400248FDF73ABE08BD0000343C00206A
:10438000FEE710B5044600F071F8002803D000F0F5
:104390003FF82046F7E710BD2DE9F04180461D4665
:1043A00016460F46542003F055FE040024D0542135
:1043B000FBF781FF27612573C4F808801248666106
:1043C000206304F11800606315B1012D03D009E0EA
:1043D0002246002101E02246012104F1300002F0D2
:1043E00041FBA0630948002142683AB11460426869
:1043F0006260446021602046BDE8F0814460046052
:1044000021606160F7E700000D6B00083C000020B0
:1044100010B5040027D0A06B02F03EFB12484268A2
:10442000A24202D00168A14210D10021A24204D1CF
:1044300062684260626802B111600268A2420DD1F6
:1044400022680260206848B1416007E0606808B1F6
:1044500021680160206808B16168F5E72046BDE881
:10446000104003F0D7BD10BD3C00002001460448B9
:1044700002E082688A4202D000680028F9D17047C1
:104480003C000020002802D0806B02F011BB704776
:104490002DE9F0411C4615460E460746DDF818800A
:1044A000FEF72CF9002809D00760C0E9016580F803
:1044B0000C800461BDE8F041FEF7B4B9BDE8F081BD
:1044C000002803D04169806B02F0F2BA7047000007
:1044D00002480021C1600161084670473000002099
:1044E0000FB4054B10B503A9044A029800F024F953
:1044F00010BC5DF814FB000045600008B800002007
:104500000FB41CB50A46521ECDE9000207A9054B9F
:104510006A46069800F010F9009A002111701CBC40
:104520005DF814FB674E00087CB5491E1C46154615
:10453000CDE90001044B6A462146284600F0FCF80C
:10454000009A002111707CBD674E00080907090E12
:10455000002804DB00F1E02080F80014704700F030
:104560000F0000F1E02080F8141D704702E008C839
:10457000121F08C1002AFAD170477047002001E0DD
:1045800001C1121F002AFBD1704700002DE9FF5F17
:10459000DDE90220010DDDF838B0024318D044F601
:1045A0001050A1F2FF3141430D140F98012820D083
:1045B000A5EB0B00401C5FEA000A4FF00004474ED9
:1045C000DFF81C91A046504616D5CAF1000728E036
:1045D0000F98012443A2012808D0002100980F9BC6
:1045E000C0E90021C0E90243BDE8FF9F6FEA0B016B
:1045F000F4E7CBF10000DEE7074612E0F80707D04A
:104600002246334640464946FBF72FFF80468946FF
:104610002246334610461946FBF727FF04460E464E
:104620007F10002FEAD1DDE90201BAF1000F424606
:104630004B4602DAFBF719FF01E0FBF788FF04465F
:104640000E460022284BFCF73FF803D84FF0FF300E
:10465000014607E00022254B20463146FBF75EFE6F
:10466000FCF754F9102409E0002C0ADB0A2200238D
:10467000FCF758F8019B30321A55641E50EA0102CB
:10468000F2D1641C019AC4F1110314440F9A012A57
:1046900003D0012208430DD10AE0084304D00020D2
:1046A0004FF0110B0F9080E7A3EB0B056D1E0DE093
:1046B0005B4504DD4FF0000205F1010504E003DA7B
:1046C0004FF00002A5F10105002AECD000980F99E7
:1046D000C0E90231C0E9004586E70000000024403F
:1046E0000000F03F300000000000F0430000E03F19
:1046F00010B5002A06DA22F00042D21D22F007038C
:10470000102203E0D21C22F003030C2213B19C18E8
:104710008C4201D9012010BD024401448360C0E9EC
:104720000021C91AD018884202D810600246F9E761
:104730000020106010BD00002DE9FF4F95B09B4692
:104740008946064600250FE2252877D10024274612
:10475000F84A0121059400E0044316F8013F203B8C
:1047600001FA03F01042F7D130782A2811D06FF007
:104770002F033078A0F13002092A16D8059A44F0A8
:10478000020402EB820203EB42021044761C059005
:10479000EFE759F8042B0592002A03DA504244F45B
:1047A0000054059044F00204761C30782E2816D16F
:1047B00016F8010F44F004042A280DD06FF02F02E0
:1047C0003078A0F13003092B09D807EB870302EBFF
:1047D0004303C718761CF3E759F8047B761C30783E
:1047E0006C280FD006DC4C2817D068280DD06A281A
:1047F00014D104E0742810D07A280FD10DE044F4CD
:1048000000140AE044F4801401E044F44014727887
:10481000824202D104F58014761C761C307866281A
:104820000BD013DC582877D009DC002875D0452838
:10483000F6D04628F4D047281AD19DE118E0632825
:1048400035D0642879D0652812D195E1702873D0CD
:1048500008DC6728F1D069286FD06E280DD06F284A
:1048600006D1B5E073282CD0752875D0782874D07F
:104870005A46179990476D1C75E1C4F302500228FF
:1048800009D003280DD0D9F8001004280DD00D60F0
:1048900009F1040967E1D9F80010EA17C1E90052EB
:1048A000F6E7D9F800100D80F2E70D70F0E719F87F
:1048B000041B8DF8001000208DF80100EA4601204D
:1048C00003E059F804AB4FF0FF3061074FF00001EF
:1048D00002D40DE008F101018846B9420FDA8045A3
:1048E000F8DB1AF808100029F4D108E008F10101FA
:1048F00088468142FADB1AF808100029F6D105989B
:104900005B46A0EB080721463846179A00F094FA58
:10491000284400EB080507E04DE029E10DE01AF816
:10492000010B5A4617999047B8F10108F7D25B4638
:1049300021463846179A13E142E00A220092C4F356
:1049400002524FF0000A022A08D059F804CB032A79
:104950004FEAEC710AD00DE029E02AE009F10701E5
:1049600021F00702F2E802C1914609E00FFA8CFC3F
:104970004FEAEC71042A03D14FFA8CFC4FEAEC7138
:10498000002907DA0A460021DCF1000C61EB020184
:104990002D2202E0220504D52B228DF804200122CD
:1049A00003E0E20701D02022F7E7904659E00A2110
:1049B00002E010220DE010214FF0000A00910BE000
:1049C00010224FF0000A44F004040827009203E08C
:1049D00008224FF0000A0092C4F30252022A05D0C6
:1049E00059F804CB0021032A08D009E009F1070196
:1049F00021F00702F2E802C1914605E01FFA8CFCA3
:104A0000042A01D10CF0FF0C4FF00008220728D532
:104A1000702806D0009B83F0100353EA0A0305D0E8
:104A20000EE040228DF80420012208E05CEA010239
:104A300006D030228DF804208DF805000222904621
:104A4000009B83F0080353EA0A030AD15CEA0102DF
:104A500001D1620705D530228DF804204FF00108FE
:104A60007F1E582804D034A003900EA802900DE0B9
:104A700036A0F9E753466046009AFBF753FE84469A
:104A80000398825C0298401E029002705CEA01006A
:104A9000F0D1029806A9081A00F1200A600702D591
:104AA00024F4803400E00127574502DDA7EB0A001B
:104AB00000E0002000EB0A01009005984144401AF4
:104AC0000590E00306D45B462146179A059800F04E
:104AD000B3F90544002706E001A85A46C05D1799BE
:104AE00090476D1C7F1C4745F6DBE0030CD55B4609
:104AF0002146179A059800F09FF9054404E03020FC
:104B00005A46179990476D1C0099481E009000293D
:104B1000F5DC08E0029802995A460078491C029197
:104B2000179990476D1CBAF10001AAF1010AF1DC56
:104B300065E1000009280100303132333435363761
:104B400038396162636465660000000030313233D9
:104B50003435363738394142434445460000000079
:104B600000F058F90544761C307800287FF4ECAD4D
:104B700019B02846BDE8F08F620700D4062709F176
:104B8000070222F0070CFCE80223E14603F000488C
:104B90005FEA080C02D00FF2702C0DE05FEA045CB3
:104BA00002D50FF2682C07E05FEAC47C02D00FF256
:104BB000602C01E0AFF2700C4FF0FF3823F000439F
:104BC000CDF850C065280CD006DC452809D0462811
:104BD0001DD047283DD13DE0662818D067287ED1FA
:104BE00038E00021112F01DB112000E0781CCDE915
:104BF000000106A90EA8FFF7C9FCDDE90F010E9A16
:104C000003910021009207F1010A04914DE04FF059
:104C100000400097CDE9011006A90EA8FFF7B6FCE9
:104C2000DDE90F0203920E9B11990022DDF80CA022
:104C30000093049211B9791C00EB010AB7EB0A004A
:104C400004D4C0F1FF3007F1010A0490AAEB070079
:104C5000019044E0012F00DA01270021112F01DD2E
:104C6000112000E03846CDE9000106A90EA8FFF7A3
:104C70008DFCDDE90F010E9A039100210491009251
:104C8000BA4621070CD40399514500DA8A46BAF195
:104C9000010F05DD009AAAF10101515C302908D00D
:104CA000B84202DA10F1040F06DA0121CDE9011051
:104CB00015E0AAF10101E9E7002805DC04990144A7
:104CC0000491AAEB000102E0411C514500DD8A4637
:104CD0000499401A401C01904FF0004002902007B8
:104CE00004D40198504501DBCDF8048000208DF8F4
:104CF0004F0002980DF14F07B0F1004F25D02B2047
:104D00000E9002984FF0020800280CDA4042029000
:104D10002D200E9007E00A210298FBF7EDFC3031C0
:104D2000029007F8011DB8F10001A8F10108F2DCBA
:104D300002980028EFD1791E0E980870307800F0A4
:104D4000200040F0450007F8020D12A8C01B00F13A
:104D500007081498007800B1012000EB0A010198BF
:104D600001EBE07105984144401A401E0590E003B4
:104D700006D45B462146179A059800F05DF8054475
:104D80001498007818B15A46179990476D1CE003A3
:104D900024D55B462146179A059800F04DF8054446
:104DA0001CE00498002807DBDDE90301884203DDED
:104DB0000098405C179901E0179930205A469047B7
:104DC000049805F10105401C04900198401E0190D3
:104DD00004D12E205A46179990476D1CBAF1000154
:104DE000AAF1010ADDDC05E017F8010B5A46179914
:104DF00090476D1CB8F10001A8F10108F4DC5B4696
:104E00002146179A0598ABE62D0000002B00000004
:104E1000200000002DE9F041044600251E461746FB
:104E2000880404D405E039462020B0476D1C641E78
:104E3000F9D52846BDE8F0812DE9F041044600256A
:104E40001E469046C80301D5302700E0202788047D
:104E500004D505E041463846B0476D1C641EF9D5BF
:104E60002846BDE8F0814A68002A06D00A68531C2B
:104E70000B6010704868401E4860704770B505466A
:104E80000068864C86B04FF4FA761D280FD0A0F546
:104E9000807013386ED000F61250B0F500507CD000
:104EA000012802D1286900F04FFA06B070BD012335
:104EB000324600216868FFF76FFA606000283DD035
:104EC00077A14FF4A270CDE900017D4B7DA281A1B5
:104ED000032000F0E9FC6068FFF7F2FA01230A22E0
:104EE00000216868FFF758FAA060002832D07AA144
:104EF0004FF4A670CDE90001714B72A275A1032099
:104F000000F0D2FCA068FFF7DBFA01234FF47A72BD
:104F100000216868FFF740FAE060002826D077A1FA
:104F20004FF4AA70CDE90001654B66A269A1032088
:104F300000F0BAFCE068FFF7C3FAB6E778A14FF4D7
:104F4000A170CDE900015E4B5EA262A1012000F0DC
:104F5000ABFCC3E77BA14FF4A570CDE90001584B32
:104F600058A25CA1012000F09FFCCEE77FA14FF486
:104F7000A97046E028696168884230D14FF4005139
:104F80008348FCF7ABF8012826D1607C5A2812D25E
:104F9000607C322802D835460EE07AE0607C4FF41F
:104FA000C87132384843282190FBF1F0C0F5FA70FF
:104FB00005B2002D00DA642529466068FFF762FA21
:104FC00074A04FF4B471CDE900103D4B3DA20295A1
:104FD00040A1032000F068FC01F094FA65E7A168A5
:104FE000884202D101F060FA5FE7E1688842A4D10B
:104FF0002A491131481EFBF77CFD58B169A140F2E6
:105000006F10CDE900012E4B2EA232A1012000F03D
:105010004BFC4AE7637C227C68A140F271108DE86A
:105020000F00274B27A22BA1032000F03DFC0225F7
:105030000095227C002329461846FEF721FE0095A4
:10504000627C002303211846FEF71AFE94F8A5009F
:10505000401CC0B284F8A50094F8A4100029BDD16A
:10506000C007BBD194F8A6008DF8100094F8A700F3
:105070008DF8110000208DF81200207C8DF81300AF
:10508000607C8DF8140052480521C26A04A890473C
:105090000BE7286903F02BF807E70000FC2300204A
:1050A0006170705F696E69742063726561746520F8
:1050B000626C696E6B5F74696D6572206F6B210045
:1050C000658700082E2E5C757365725C6170702EAA
:1050D00063000000415050006170705F696E697438
:1050E00020637265617465206B65797363616E5FBF
:1050F00074696D6572206F6B210000006170705FD4
:10510000696E6974206372656174652073656E737E
:105110006F725F74696D6572206F6B210000000013
:105120006170705F696E6974206372656174652077
:10513000626C696E6B5F74696D6572206572726F07
:10514000722100006170705F696E6974206372651E
:10515000617465206B65797363616E5F74696D65F9
:1051600072206572726F7221000000006170705FC2
:10517000696E6974206372656174652073656E730E
:105180006F725F74696D6572206572726F72210053
:10519000001001404C45442054696D65723A256405
:1051A0000000000044485431315F526561645F443F
:1051B000617461206572726F7221000054656D70B8
:1051C0003A25643B2048756D693A2564000000006B
:1051D000988800087FB5A8212748FBF76CF8264C73
:1051E0000025294684F8A4502448FDF78FFA206052
:1051F000002834D022A1EC20CDE90001294B2AA2BD
:105200002DA1032000F050FB2C4801F01DF901F006
:105210000FFD194800950195029503951430284B10
:1052200028490646226802F06FFF304602F0C7FFA9
:10523000102084F8A60094F8A400012818D00120BA
:1052400084F8A700FDF734F994F8A400012812D1DE
:105250001D48816B04B00020BDE8704008471BA1C9
:10526000EA20CDE900010F4B0FA213A10120C9E7ED
:1052700084F8A750E6E77FBDFC2300207D4E0008A0
:105280006170705F696E6974204D736745786563FE
:105290005F4372656174654D6F64756C65206F6BFB
:1052A000210000004B8700082E2E5C757365725C30
:1052B0006170702E6300000041505000F5520008EC
:1052C000B1540008343C0020988800086170705F79
:1052D000696E6974204D7367457865635F437265D5
:1052E0006174654D6F64756C65206572726F7221B3
:1052F000000000000EB501280BD106A040F29F125D
:10530000CDE9002002910A4B0AA20EA1032000F071
:10531000CBFA0EBD6170705F6B65795F72656C650D
:105320006173652063616C6C6261636B202564004E
:10533000758700082E2E5C757365725C6170702E27
:10534000630000004150500070B58AB004005DD089
:1053500001AD94F90430B4F90220218834A085E825
:105360000F004FF48D7000903B4B3CA23FA10320F7
:1053700000F09AFAA07903AE637A227AE17986E89E
:105380000F0062793A494FF48E708DE80700651D71
:10539000314B32A235A1032000F086FA354CA978B2
:1053A00094F8A700814233D1297894F8A62091423D
:1053B0002ED1022600960023EA7804211846FEF733
:1053C0005FFC009600232A7905211846FEF758FC59
:1053D00094F8A400012819D194F8A500C00715D1AC
:1053E00094F8A6008DF81C0094F8A7008DF81D0015
:1053F00000208DF81E00207C8DF81F00607C8DF849
:1054000020001D480521C26A07A890470AB070BD58
:1054100094F8A61019A24FF49A73CDE90032CDE9A1
:1054200002010D4B0DA211A1012000F03DFAEDE7A4
:10543000524556204C6F7261204D657373616765EC
:105440002C73697A653D25642C727373693D2564FC
:105450002C736E723D256400548700082E2E5C75F7
:105460007365725C6170702E6300000041505000E3
:1054700088890008FC2300209888000864657374FC
:105480005F61646472206973206E6F74206D652C97
:105490006D6520616464722069732025642C6D65DC
:1054A000206E6574776F726B2069643A2564000022
:1054B0002DE9F041164D164688460024A5F138071F
:1054C00013E000BF18F8040001F0A2FB40212846B9
:1054D00001F062FB010006D097F83900072808D0D8
:1054E0002846FDF7D1FA641CA4B2B442EAD3BDE861
:1054F000F08171B6BFF34F8F06480168064A01F488
:10550000E06111430160BFF34F8F00BFFDE7000072
:10551000342400200CED00E00400FA052DE9F041F0
:10552000314C8AB04FF00108C4F8A0800025C4F8BF
:1055300080800A21C4F88480C4F890500C22E1676E
:10554000C4E9222829482A4EC4E9268044F8781F55
:10555000E561F1688847FF21726D01209047207F47
:10556000A26941F27071783C02B10122CDE90520B7
:10557000CDE90751D4F8800008B1012100E00021F5
:10558000B4F87C0094F88C2080B2CDE90120CDE9FC
:105590000351D4F888000090D4F8843014F8780FC0
:1055A000002241B2376A0120B847207FA269783CC7
:1055B00002B1012207A9069281E82101D4F88000F6
:1055C00000B10120CDE904500295039534F87C0F19
:1055D00080B2CDE90050D4E90212237CF4690120A5
:1055E000A0470AB0BDE8F081FC230020C092ED196D
:1055F000988800082DE9F041C1F30A52A2F2FF3663
:105600002F4A304B0D460446142E2FDA002E12DAA4
:10561000FAF784FE00221346FBF756F84CD2002D11
:10562000BCBF4FF00045002446DB55EA040018BF1C
:10563000254D19D140E0DFF894C02CFA06F705EAB1
:10564000070C5CEA040C08BFBDE8F081FAF766FEBF
:1056500000221346FBF738F82ED2002D03DD4FF45D
:105660008010F0400544BD43002425E0332EC8BF20
:10567000BDE8F081A6F1140C4FF0FF3727FA0CF7C4
:105680003C4208BFBDE8F081FAF7ECFE0022134669
:10569000FBF71AF810D2002D0DDD142E08BF6D1C7B
:1056A00009D0C6F13400012101FA00F02044A042E3
:1056B00038BF6D1C0446BC4329462046BDE8F08136
:1056C0009C7500883CE4377E0000F03FFFFF0F0030
:1056D00010B5421100F01F0451F822300120A04003
:1056E000834341F8223010BD08480068C0010BD543
:1056F00007480068C00707D00548803800680028C0
:1057000002DA04490120087070470000FCED00E057
:10571000800E00E0AC0000204FF06042D36F002B01
:10572000FCD0036BD367D36F002BFCD0C07840EA6A
:105730000120A2F87C0070474FF06041CA6F002A38
:10574000FCD081F87C00704702494FF4C05000F053
:10575000B1BD0000C4050020F0B585B0070007D139
:105760001E484FF4F072036893B11D491DA098477D
:10577000214D0024052695F8F000C0B100F03EFA56
:1057800004EB4410411991F85100012812D017E0A0
:105790001348CDE90302009212A118A3CDE901310B
:1057A00003461FA225A1002000F07EF8FEE705B009
:1057B0003046F0BD1E2238463231FAF7A0FD30B136
:1057C000641CE4B2052CDBD300F03EFAEFE704EBF7
:1057D0004410284490F83160F6E7000000000020F3
:1057E0009A82000874616720213D202828766F691D
:1057F00064202A2930290000BC04002028257329B0
:105800002068617320617373657274206661696CCE
:1058100065642061742025733A256C642E000000B5
:105820002E2E5C656173796C6F676765725C73724D
:10583000635C656C6F672E6300000000656C6F67CA
:10584000000000002DE9F041164D002095F8F01001
:10585000012925D000F00BFA060021D1012000F02B
:10586000DDF9002785F8F37085F8F470052000F065
:105870000BFA00244FEA070804EB4410471907F11C
:1058800032001F21FAF717FD641C87F83180E4B25B
:1058900087F85180052CEFD3012085F8F0003046C1
:1058A000BDE8F081BC0400200FB42DE9F04F06469E
:1058B0008BB08B460846FAF71BFD00240A94074676
:1058C000A04609940594069407940894052E08D9D7
:1058D000A54840F23E220368002B7DD0A349A4A036
:1058E0009847AA4D95F8F100002876D02878B04264
:1058F00073D35846FFF730FFB0426ED3A946691CF8
:105900005846FAF7E3FC002867D00DF1680A00F06A
:1059100075F90121304600F05BFCA5F5806540B1CA
:1059200091482946001D50F82620204600F0A4FA90
:1059300004460221304600F04BFCC8B129195A46F2
:10594000204600F099FA04440F2F0BD8C7F10F013D
:10595000202205A8FAF7A8FC291905AA204600F07C
:105960008BFA044429198AA2204600F085FA0444DF
:105970001C21304600F02CFC00284BD0291985A2B0
:10598000204600F079FA04440421304600F020FC5F
:1059900090B100F06BF902462919204600F06CFA2C
:1059A00004441821304600F013FC28B1291978A2CC
:1059B000204600F061FA04440821304600F008FC5B
:1059C000A8B100F051F902462919204600F054FA16
:1059D00004441021304601E023E0BFE000F0F8FB72
:1059E00028B129196AA2204600F046FA0444102181
:1059F000304600F0EDFB38B100F037F902462919C6
:105A0000204600F039FA0444291963A2204600F028
:105A100033FA044420213046169A00F039FCE0B9EC
:105A20000EE05248CDE90302009251A15BA3CDE9FB
:105A30000131034662A269A10020FFF735FFFEE7AE
:105A400040213046179A00F023FC30B980213046BF
:105A5000189A00F026FC002856D0291961A2204689
:105A600000F00AFA044420213046169A00F010FC97
:105A7000D0B129192046169A00F0FEF904444021BD
:105A80003046179A00F004FC10B1291956A207E01D
:105A900080213046189A00F004FC28B129193CA254
:105AA000204600F0E9F9044480213046189A00F0BD
:105AB000F8FBB8B14DA2052109A8189BFEF720FDFF
:105AC000291909AA204600F0D7F90444402130469C
:105AD000179A00F0DDFB28B129192DA2204600F00D
