:020000040800F2
:100000004841002041020008F52900085B2600084D
:10001000B5280008E10A0008C94B000800000000EC
:10002000000000000000000000000000790100084E
:10003000C70C000800000000F10100082D020008B4
:100040005B0200085B0200085B0200085B0200081C
:100050005B0200085B0200085B0200085B0200080C
:100060005B0200085B0200085B0200085B020008FC
:100070005B0200085B0200085B0200085B020008EC
:10008000910C00085B0200085B0200085B0200089C
:100090005B0200085B0200085B0200085B020008CC
:1000A0005B0200085B0200085B0200085B020008BC
:1000B0005B0200085B0200085B0200085B020008AC
:1000C0005B0200085B0200085B0200085B0200089C
:1000D0005B020008914B00089D4B00085B02000882
:1000E000F10C00085B0200085B020008DFF81CD07E
:1000F00000F080FC07F0F2F80021034807F0CEF989
:1001000007F0FEF8FEE700003894000848410020A0
:1001100080F309887047EFF309807047684680F3E1
:10012000098804480078C00714BF0220032080F328
:100130001488704724940008DFF818C0EFF3058393
:100140001B0618BF6047EFF31483DB0708BF604747
:1001500000DF70475D770008DFF818C0EFF3058314
:100160001B0618BF6047EFF31483DB0708BF604727
:1001700000DF704751790008EFF30980816911F8B9
:10018000021CF1B990E80F10E047EFF3098C8CE8FE
:100190000700144B93E8060091420FD039B12CE9C7
:1001A000F00FC1F828C00CB407F0C2FF0CBC1A60F5
:1001B000D2F828C0BCE8F00F8CF309886FF0020E6B
:1001C000704710B5084A1268914209D8074C54F894
:1001D000214090E80F10A047EFF3098C8CE80F0046
:1001E00010BD00008C000020DC0A0008DC0A0008BA
:1001F00007F070FE0C4B93E80600914210D0EFF32D
:10020000098C2CE9F00FC1F828C00CB407F090FF5E
:100210000CBC1A60D2F828C0BCE8F00F8CF3098837
:100220006FF0020E704700008C00002008F048F8C4
:10023000E0E7000007F0D8F908F042F8DAE700003C
:100240000648804706480047FEE7FEE7FEE7FEE770
:10025000FEE7FEE7FEE7FEE7FEE7FEE7B145000842
:10026000ED0000082DE9F05F0546002092469B4610
:1002700088460646814640241BE0284641464746BC
:10028000224600F020F853465A46C01A914110D336
:1002900011461846224600F083FA2D1A67EB010832
:1002A0004F4622460120002100F07AFA17EB0009A0
:1002B0004E41201EA4F10104DFDC484631462A46A7
:1002C0004346BDE8F09F202A04DB203A21FA02F0E1
:1002D0000021704721FA02F3D040C2F12002914080
:1002E00008431946704740EA01039B0703D009E021
:1002F00008C9121F08C0042AFAD203E011F8013B12
:1003000000F8013B521EF9D27047D2B201E000F86A
:10031000012B491EFBD270470022F6E710B51346A9
:100320000A4604461946FFF7F0FF204610BD30B5D7
:1003300005462A460B4612F8010B13F8014B08B18B
:10034000A042F8D01CB1002802D06D1CF1E728466D
:1003500030BD421C10F8011B0029FBD1801A7047E8
:1003600030B505460020034600E05B1C934205D2F1
:10037000EC5CC85C201A01D1002CF6D130BD70B500
:10038000064604F01FFD046805460A220021304697
:1003900000F027FA2C6070BD2DE9FE4F804681EAFF
:1003A0000300C00F0C46009021F0004123F00045EF
:1003B000B8EB0200A94105D24046214690461C46B2
:1003C0000B46024623F00040104347D0270DC7F3E9
:1003D0000A00C3F30A510290401A019040286BDAD8
:1003E000C3F3130040F4801B0098924620B1002311
:1003F000D2EB030A63EB0B0B01985946C0F14002A4
:10040000504600F0CDF906460D4650465946019A31
:1004100000F0D5F910EB08006141002487EA115281
:1004200084EAE7731A4340D0009A62B3019A012A22
:100430004FEA075215DC001B61EB02014FF000424E
:1004400002EA0752CDE90042001C41F58011324614
:100450002B4600F00DFA03B0BDE8F08F4046214670
:10046000F9E7001B61EB0201001C41F58013001845
:100470005B412018A2F5001747EB030140EAD57055
:10048000B6196D4111E06D084FEA360645EAC075B0
:100490004FEA0752001B61EB0201001C41F580117D
:1004A00049084FEA30000019514132462B4603B04B
:1004B000BDE8F04F00F0CDB90098012240000023C4
:1004C000D0EB020263EBE073009821464FEAE07440
:1004D000B8EB000061EB0401E9E783F000435BE760
:1004E00081F0004158E72DE9FE4F81EA030404F052
:1004F000004421F0004100944FF0000B23F0004332
:1005000050EA01045ED052EA03045BD0C3F30A54FC
:10051000C1F30A552C44A4F2F3340194A0FB025415
:10052000C1F3130141F48011C3F3130343F48013A7
:1005300001FB024400FB034E840A970A44EA8154FB
:1005400047EA8357A4FB076802958D0A05FB0785D8
:100550004FEA932C04FB0C542705029D4FEA0658E2
:1005600047EA1637B5EB08056EEB070C870E920EBF
:1005700047EA811742EA8312A7FB0201B6EB0B019F
:1005800064EB00042B0D43EA0C335E1844EB1C5063
:10059000DA465146E7FB0201C5F313044FEA0B3379
:1005A00043EA14534FEA0432019C43EA0603A4F1E0
:1005B0000C040294009CCDE900B400F059F903B09A
:1005C000BDE8F08F00200146F9E72DE9F04D81EA02
:1005D000030404F0004B21F0004514464FF0000ADC
:1005E00023F0004150EA050220D054EA01021DD058
:1005F000C5F30A570246C5F31303C1F31300C1F351
:100600000A5640F4801543F48013A7EB0608101B2C
:10061000D64608F2FD3873EB050002D308F1010855
:1006200001E092185B41B8F1000F03DA00200146A7
:10063000BDE8F08D00204FF48011064684460EE0A0
:10064000171B73EB050705D3121B63EB050306436A
:100650004CEA010C49084FEA300092185B4150EA1D
:100660000107EDD152EA030012D082EA040083EAC6
:100670000501084305D0101BAB4106D2012200231F
:1006800006E000224FF0004302E06FF00102531039
:100690001AEB06004CEB085110EB0A0041EB0B0182
:1006A000BDE8F04D00F0D5B870B521F0004303432C
:1006B0000CD0C1F30A550024D5EB040564EB040308
:1006C000D617AD1AB34102DB0020014670BD2018D9
:1006D00041EB025170BD0EB5C10F80EAE0700844D5
:1006E000CA07002140F233438DE80E000A460B464C
:1006F00000F0BEF803B000BD0EB540F233410291E8
:100700000021CDE900110A460B4600F0B1F803B014
:1007100000BDC1F30A5210B5C1F3130140F2FF331B
:1007200041F480119A4201DA002010BD40F23343B7
:100730009A42A2F2334203DC5242FFF7C4FD10BDDD
:10074000904010BD30B5041E71F1000404DB4FF081
:100750000044404264EB0101141E73F1000405DB08
:100760001C464FF00043524263EB0403994208BF1A
:10077000904230BD30B50B460146002020220124B6
:1007800009E021FA02F59D4205D303FA02F5491B5F
:1007900004FA02F52844151EA2F10102F1DC30BD75
:1007A000202A04DB203A00FA02F100207047914031
:1007B000C2F1200320FA03F3194390407047202A26
:1007C00006DBCB17203A41FA02F043EAE07306E079
:1007D00041FA02F3D040C2F1200291400843194689
:1007E00070472DE9F04791460F46804604460026A3
:1007F00014F8015B2DB100F00FF90068405DC007EF
:10080000F6D12B2D02D02D2D18D0641E4A46394624
:10081000204600F005F927B13968A14201D1C7F897
:10082000008071054FF002040BD54042002803DD23
:1008300004F0C8FA0460A007BDE8F08746F48066BB
:10084000E4E70028F8DA04F0BDFA04606FF0004035
:10085000F2E710B5141E73F1000408DA401C41F1F0
:10086000000192185B411A4301D120F0010010BD34
:100870002DE9F04D92469B4611B1B1FA81F202E0AA
:10088000B0FA80F220329046FFF78AFF04460F4606
:1008900040EA0A0041EA0B0153465A46084313D086
:1008A000114653EA010019D0C8F140025046FFF743
:1008B0000AFD05460E46504659464246FFF770FF70
:1008C000084305D0012004E020463946BDE8F08DFC
:1008D0000020054346EAE0762C4337430A98630537
:1008E000E40AA0EB08000022FD0A44EA47540A305B
:1008F00002D500200146E9E7010510196941DDE94B
:10090000084500196941BDE8F04DA2E72DE9F04125
:10091000054621F000400C46284309D0C4F30A5094
:1009200040F23341884205DD28462146BDE8F0818A
:100930002846FBE740F2FE31884210DC0CDB4FEA30
:10094000043040EA155050EA053105D0104804F053
:10095000004101430020E9E700200146E6E7A0F25C
:1009600033404642C6F1400228462146FFF718FFB1
:1009700007468846284621463246FFF7A4FC4346F0
:100980003A46FFF766FF3246BDE8F041FFF708BF81
:100990000000F03FC1F30A52C1F3130140F2FF33EC
:1009A00041F480119A4202DA00200146704740F279
:1009B00033439A42A2F2334202DC5242FFF783BC35
:1009C000FFF7EEBE30B5041E71F1000404DB4FF0FA
:1009D0000044404264EB0101141E73F1000405DB86
:1009E0001C464FF00043524263EB04038B4208BFA6
:1009F000824230BD064C074D06E0E06840F001033E
:100A000094E8070098471034AC42F6D3FFF772FB26
:100A10005C9500087C95000800487047F494000835
:100A20002DE9F05F82460078002715468B460AF1D3
:100A30000104B946302801D09DB113E014F8010B30
:100A40000127782803D0582801D045B10AE00DB11C
:100A5000102D07D10027102514F8010B02E00825FE
:100A600000E00A250026B0460EE005FB080005FB65
:100A700006F1012701EB10461FFA80F8B6F5803F1A
:100A800000D3B94614F8010B294600F018F80028E5
:100A9000EBDABBF1000F05D00FB1641E00E0544645
:100AA000CBF80040B9F1000F06D004F08BF9022119
:100AB0000160C81EBDE8F09F48EA0640FAE73A2800
:100AC00000D2303820F02002412A01D3A2F13700B1
:100AD000884201D34FF0FF30704700000000000053
:100AE000FEE7000070B5002400F02AF84FF400453E
:100AF000124E04E0641CE4B2012000F0E5F829463F
:100B0000304600F0C1FB10B1642CF3D30FE0642C2D
:100B10000DD2002404E0641CE4B2012000F0D4F8FB
:100B20002946304600F0B0FB18B1642C04D30120F4
:100B300070BD642CEFD3FAE7002070BD00100140B7
:100B40001FB50020019003904FF400400090012059
:100B500002906946014800F0A7FA1FBD001001404D
:100B60007FB500200B4D00900190029002464FF49B
:100B7000004403902146284600F093FB0121022007
:100B8000CDE90210CDE900416946284600F08CFA13
:100B90007FBD00000010014070B5FFF7E1FF0A4D76
:100BA0004FF4004400222146284600F07AFB14202E
:100BB00000F04CFA01222146284600F072FBBDE805
:100BC00070401E2000F080B80010014070B54FF456
:100BD0000045134E04E0641CE4B2012000F074F8F8
:100BE0002946304600F050FB08B1642CF3D30024B2
:100BF00004E0641CE4B2012000F066F829463046A7
:100C000000F042FB08B9642CF3D3282000F05CF814
:100C10002946304600F038FB002800D0012070BD86
:100C20000010014070B5002004464006050EFFF795
:100C3000CDFF641C2843E4B2082CF6D370BD2DE927
:100C4000FC410D460646FFF7A7FFFFF74BFF10B12B
:100C50000120BDE8FC8100246F46FFF7E3FF385513
:100C6000641CE4B2052CF8D39DF800109DF8010037
:100C70009DF803300A189DF8020003441A449DF8B9
:100C800004309A4201D1297030700020E1E7000061
:100C9000014800F0CBB80000A82A002030B590F839
:100CA00040500124AC40C56B6C60046863604368CD
:100CB000102B036803D099600068C26030BD9A6051
:100CC0000068C16030BD704770B5084C0546002013
:100CD00021684862204601F069F92068416AA9420A
:100CE000FCD9BDE87040014801F088B9D029002046
:100CF00010B54FF4006000F0CBF94FF4805000F0D5
:100D0000C7F94FF4005000F0C3F9BDE810404FF4AC
:100D1000804000F0BDB972B6FEE70000094A00212C
:100D200052F83130834208D802EBC1039B688342FA
:100D300003D902EBC10000797047491CC9B21529DB
:100D4000EED3FEE7DC92000810B590F821100022E7
:100D5000022905D00421816380F82020012010BDE4
:100D600001680B6823F00E030B6001680B6823F029
:100D700001030B6090F84030C46B012101FA03F3CA
:100D8000636080F8211080F82020104610BD00001C
:100D900010B590F821100024022903D004218163AA
:100DA00001243DE001680A6822F00E020A60016831
:100DB0000A6822F001020A601A4A0168914201D1D0
:100DC000012121E0174A1432914201D110211BE088
:100DD000144A2832914201D1891515E0114A3C325A
:100DE000914201D189140FE00E4A5032914202D152
:100DF0004FF4803108E00B4A6432914202D14FF443
:100E0000801101E04FF08071064A083A51600121DB
:100E100080F82110002180F82010416B01B1884733
:100E2000204610BD08000240806B70472DE9F05F3E
:100E3000C16B0C6801680B68D0F840C0042202FA4C
:100E40000CF2494DDFF824A1494E4A4FDFF828B192
:100E5000DFF828E122422CD05A072AD50A689206E8
:100E600003D40A6822F004020A600168A94201D191
:100E7000042219E0514501D1402215E0B14202D1CE
:100E80004FF4806210E0B94202D14FF480420BE08F
:100E9000594502D14FF4802206E0714502D14FF44A
:100EA000800201E04FF080622F4908394A60C16A30
:100EB0003BE04FF0020808FA0CF818EA040F4FF074
:100EC00000094FF0010235D05FEA837832D50B6814
:100ED0009B0605D40B6823F00A030B6080F82120E1
:100EE0000168A94201D1022219E0514501D1202215
:100EF00015E0B14202D14FF4007210E0B94202D1C4
:100F00004FF400520BE0594502D14FF4003206E095
:100F1000714502D14FF4001201E04FF00072124906
:100F200008394A6080F82090816A00291AD0BDE80B
:100F3000F05F0847082505FA0CF5254212D01B077B
:100F400010D50B6823F00E030B6090F84010C36BB4
:100F500002FA01F15960826380F8212080F8209024
:100F6000016BE2E7BDE8F09F080002401C00024070
:100F70003000024044000240580002406C00024031
:100F800030B528B308C8134914221944B1FBF2F153
:100F90008900C16310498163022141771A6843F6D1
:100FA000F0718A43D0E900142143D0E902452C4373
:100FB0002143046921434469214384692143114346
:100FC000196000214163012242770177084630BD54
:100FD000012030BDF8FFFDBF0000024070B504469F
:100FE00090F82000002501280CD0012084F8200072
:100FF00094F821600020012E06D084F820000225FC
:10100000284670BD022070BD022684F82160A063CE
:101010002068066826F0010606602046FFF73EFEBF
:10102000E06A00282068016802D041F00E0106E065
:1010300021F0040101602068016841F00A010160AB
:101040002068016841F001010160D9E770B50446EC
:1010500000F02CF90546601C02D0044800780444D6
:1010600000F024F9401BA042FAD370BD64000020B8
:10107000102809D0B0F5006F04D0B0F5805F05D11D
:1010800002F0A6BA02F074B902F006BB7047000085
:10109000044910B50A68024202D00860FFF7E8FF71
:1010A00010BD0000140401402DE9F84FDFF8B8919D
:1010B0000024A9F1040B23460F2709F1040AABF120
:1010C000040EC9E00125A5402A40AA427DD1674E01
:1010D000D1F804C0ACEB0608B44532D014DCBCF146
:1010E000030F3AD009DCBCF1000F2AD0BCF1010F8C
:1010F0001CD0BCF1020F31D11DE0BCF1110F17D093
:10110000BCF1120F2AD119E0B8F5881F19D006DCFE
:10111000B8F5803F15D0B8F5801F1FD111E0B8F5A4
:10112000001F0ED0B8F5041F18D10AE0CB6815E0F7
:10113000CB681B1D12E0CB6808330FE0CB680C3383
:101140000CE08B682BB1012B4FF0080303D04561F5
:1011500004E0042302E0056100E00023FF2A01D837
:10116000064601E000F104064FEA840501D9A5F125
:101170002005D6F8008007FA05FC28EA0C0803FAD7
:1011800005F548EA0508C6F800804D68ED0062D50F
:10119000374DAE6946F00106AE61AD6924F0030635
:1011A00005F001050095334D06EB050CDCF8085001
:1011B000A607360F07FA06F825EA0805DFF8B88013
:1011C000404503D14FF0000817E044E0DFF8AC8061
:1011D000404502D14FF001080FE0DFF8A480404500
:1011E00002D14FF0020808E0DFF89880404502D1B4
:1011F0004FF0030801E04FF0040808FA06F848EA47
:101200000508CCF808804D68D9F80060ED024D461D
:1012100001D5164300E096432E604D68DAF8006071
:10122000AD02554601D5164300E096432E604D6849
:10123000DBF80060AD035D4601D5164300E0964340
:101240002E604D68DEF80060ED03754601D516434B
:1012500000E096432E60641C0D682A46E5407FF44A
:1012600031AFBDE8F88F0000080401400000111004
:10127000001002400000014000080140000C014045
:1012800000100140001401408068084000D0012097
:101290007047C26821EA02030A4043EA0241016141
:1012A00070470AB1016170470904FBE70148006813
:1012B0007047000088000020074810B5016841F021
:1012C00010010160032000F07DF8012000F006F815
:1012D00000F024F8002010BD0020024070B50D4D34
:1012E00004464FF47A712878B1FBF0F00A49096896
:1012F000B1FBF0F000F0CFFD48B9102C07D200226E
:101300002146501E00F03EF800206C6070BD0120A8
:1013100070BD00006400002070000020104808B577
:10132000816941F001018161816901F00101009150
:10133000C16941F08051C161C06900F080500090E6
:10134000062000F03FF801210022C81E00F01AF824
:101350000448416821F0E06141F00071416008BD3E
:101360000010024000000140002809DB00F01F02CD
:10137000012191404009800000F1E020C0F80011F7
:1013800070470000F0B40E4B1B680C46C3F30223F9
:10139000C3F10705042D00D90425191D072901D221
:1013A000002300E0DB1E012606FA05F1491E21405C
:1013B00099409E40761E16403143F0BC03F0F2BCCB
:1013C0000CED00E0064900F0070208684FF6FF0345
:1013D000184040EA0220034A1043086070470000AA
:1013E0000CED00E00000FA052DE9F0470F4605007E
:1013F00061D0434E306800F00700B84209D230682F
:1014000020F0070038433060306800F00700B84231
:1014100051D128683B4C810712D5400703D560683D
:1014200040F4E06060602878000703D5606840F40D
:10143000605060606068A96820F0F0000843606058
:101440002878C00728D06868012810D021680228B1
:1014500010D0890700292EDA616821F003010143C9
:101460006160FFF723FF804641F288390DE0216873
:101470008903EFE78901EDE7FFF718FFA0EB08010B
:10148000494502D90320BDE8F0876068696800F02B
:101490000C00B0EB810FEFD1306800F00700B842CC
:1014A0000BD9306820F0070038433060306800F016
:1014B0000700B84201D00120E5E72878400705D5AC
:1014C0006068E96820F4E0600843606028780007FD
:1014D00006D56068296920F4605040EAC100606068
:1014E00000F038F86168084AC1F30311515CC84044
:1014F0000649086006480068FFF7F0FE0020C2E7D2
:101500000020024000100240FB9300087000002001
:10151000680000200448054900684968044AC1F38E
:101520000221515CC840704770000020001002404A
:101530000B9400080448054900684968044AC1F34F
:10154000C221515CC840704770000020001002406A
:101550000B9400080E4A51680E4801F00C03042B4E
:1015600011D0082B0FD10C48C1F38343C903C05CD1
:101570000AD55168084AC1F34041921E515C054AA0
:101580005043B0FBF1F070470449484370470000F6
:101590000010024000127A00EB93000800093D00A1
:1015A0002DE9F84F040070D02078C04DC00749D015
:1015B0006868C0F38100012807D06868C0F3810023
:1015C000022809D16868C00306D52868800339D588
:1015D00060680028E7D035E06068B0F5803F0BD048
:1015E00010B1B0F5A02F11D0286820F48030286009
:1015F000286820F4802002E0286840F480302860C9
:10160000606890B1FFF752FE06460AE0286840F491
:1016100080202860F0E700BFFFF748FE801B6428A9
:1016200073D828688003F7D50CE0FFF73FFE064625
:1016300005E000BFFFF73AFE801B6428F0D8286859
:101640008003F7D420789A4E80074FF001094FF0BD
:10165000000839D5686810F00C0F07D06868C0F32F
:101660008100022809D16868C00306D42868800771
:1016700014D52069012808D110E02069B0B1C6F85E
:101680000090FFF713FE074605E00AE1FFF70EFEA4
:10169000C01B0228C4D828688007F7D5286861696C
:1016A00020F0F80040EAC10028600DE0C6F8008094
:1016B000FFF7FCFD074604E0FFF7F8FDC01B02281A
:1016C00023D828688007F7D4207800072CD57948DC
:1016D000A169D9B1C0F80090FFF7E8FD074604E022
:1016E000FFF7E4FDC01B02280FD8686A8007F7D512
:1016F00071484FF4FA510068B0FBF1F0009000BF60
:101700000098411E0091FAD20EE080E0C0F80080FF
:10171000FFF7CCFD074604E0FFF7C8FDC01B022819
:1017200075D8686A8007F7D42078400760D5E869E3
:101730000027C00008D4E86940F08050E861E869FB
:10174000012700F0805000905C480168C90513D45F
:101750000168834641F480710160FFF7A7FD82466E
:1017600006E000BFFFF7A2FDA0EB0A0064284ED8F8
:10177000DBF80000C005F5D5E06801280AD008B103
:10178000052813D0286A20F001002862286A20F07A
:10179000040002E0286A40F001002862E06841F29B
:1017A000883B98B1FFF782FD82460BE0286A40F043
:1017B00004002862EEE700BFFFF778FDA0EB0A0106
:1017C00059455AD8286A8007F6D50CE0FFF76EFD18
:1017D000824605E0FFF76AFDA0EB0A0159454CD8A7
:1017E000286A8007F6D41FB1E86920F08050E861CC
:1017F000E06988B36968C1F38101022944D00228F5
:10180000C6F8608004D0FFF751FD044638E034E0AC
:10181000FFF74CFD074604E0FFF748FDC01B022818
:101820002BD828688001F7D4206AB0F5803F05D115
:101830006868A16820F4003008436860D4E90801B2
:101840000843696821F4741108436860C6F8609021
:10185000FFF72CFD044606E025E000BFFFF726FD5C
:10186000001B022809D828688001F7D51BE000BFBB
:10187000FFF71CFD001B022802D90320BDE8F88FEA
:1018800028688001F4D40EE00128F7D06868226A45
:1018900000F48031914204D1616A00F470108842F2
:1018A00001D00120EAE70020E8E700000010024034
:1018B000000042428004424270000020007000405C
:1018C00070B5040009D0606A002540B125616561EA
:1018D000A56294F8510040B10CE0012070BD606831
:1018E000B0F5827FF4D0E561F2E784F850502046ED
:1018F00000F040F8022084F851002068016821F0CF
:1019000040010160A088218900F4827001F4044143
:101910000843A18901F400610843217C01F0020120
:101920000843217D01F001010843218B01F400717E
:101930000843217F01F03801084394F8201001F09A
:1019400080010843218D01F400510843216808609B
:10195000A069042101EA1040216848602068C1693B
:1019600021F40061C1616565012084F85100002007
:1019700070BD000030B585B000240094019402943D
:10198000039400681449884223D11448816941F4C2
:1019900080518161816901F480510491816941F034
:1019A0000401816180690E4D00F004000490A020C4
:1019B0000090022001900320039069462846FFF71B
:1019C00073FB4020CDE90004694628460294FFF7E6
:1019D0006BFB05B030BD000000300140001002403C
:1019E000000801402DE9F84F044690F85100984650
:1019F00016460F460025012801D0022598E06068B0
:101A00004FF0040BB0F5827F01D1A068F8B194F8D3
:101A10005000012826D04FF0010984F85090FFF7BC
:101A200045FC8246002F7FD0002E7DD084F851B037
:101A300000206065A763A687E6872063A086E0860E
:101A400020646064A068B0F5004F0DD016E084F803
:101A500051B013460A462046CDF8008000F024F924
:101A6000BDE8F88F0220FBE72068016821F0400103
:101A700001602068016821F48041016020680168EC
:101A8000490603D4016841F040010160E068D8B123
:101A90003BE020688168C90709D0007BA16B087012
:101AA000A06B401CA063E08F401EE0870CE0FFF7B6
:101AB000FDFBA0EB0A01414503D3B8F1FF3F03D082
:101AC00006E0B8F1000F03D0E08F0028E1D11FE05D
:101AD00003252BE020688168C90709D0C068A16B85
:101AE0000880A06B801CA063E08F401EE0870CE0A4
:101AF000FFF7DCFBA0EB0A01414503D3B8F1FF3F40
:101B000003D0E5E7B8F1000FE2D0E08F0028E1D183
:101B100052464146204601F025FA08B12020606572
:101B2000606D00E000E008B1012501E084F851900B
:101B3000002084F85000284692E72DE9F84F04462B
:101B400090F850000026984615468A4601280CD089
:101B5000012784F85070FFF7A9FB814694F85100E3
:101B6000B346012804D002269AE00220BDE8F88F8F
:101B7000BAF1000F6FD0002D6DD0032084F8510012
:101B8000C4F854B0C4F830A0A586E586C4F838B0CF
:101B9000A4F83CB0A4F83EB0C4F844B0C4F840B0D7
:101BA000A068B0F5004F09D12068016821F040011C
:101BB00001602068016841F480410160206801688B
:101BC000490603D4016841F040010160E068B0F5C6
:101BD000006F606803D058B3012D29D049E008B1E7
:101BE000012D1FD1206B21680088C86006E02068A5
:101BF0008168890709D5216B0988C160206B801C29
:101C00002063E08E401EE0860CE0FFF74FFBA0EB68
:101C10000901414503D3B8F1FF3F03D006E0B8F115
:101C2000000F03D0E08E0028E1D125E0032635E047
:101C3000206B21680078087306E0206881688907B6
:101C40000AD5216B09780173206B401C2063E08E5C
:101C5000401EE0860DE01FE0FFF728FBA0EB090126
:101C6000414503D3B8F1FF3F03D0DFE7B8F1000FE0
:101C7000DCD0E08E0028E0D14A464146204601F003
:101C80009FF908B120206065A06818B92068C16874
:101C900080680090606D08B1012601E084F8517001
:101CA00084F850B0304661E72DE9FF4F81B004461B
:101CB00090F8500000260E9F1D4693464FF00109F4
:101CC00001280FD04FF0010A84F850A0FFF7EEFA78
:101CD000804694F85100616801280DD0B1F5827FEB
:101CE00008D103E0022005B0BDE8F08FA16809B972
:101CF000042801D00226C9E00298002865D0BBF173
:101D0000000FFBD0002DF9D094F85100042802D028
:101D1000052084F8510000206065C4F838B0E587DC
:101D2000A58702992163E586A58620646064206802
:101D30000168490603D4016841F040010160E06890
:101D4000B0F5006F606803D0F0B3012D47D081E09B
:101D500008B1012D3CD1206B21680088C860206B40
:101D6000801C2063E08E401EE08631E020688168A0
:101D700089070FD5E18E69B1B9F1010F0AD1216B45
:101D80000988C160206B801C2063E08E401EE086C5
:101D90004FF0000920688168C9070CD0E18F51B16C
:101DA000C068A16B0880A06B801CA063E08F401E00
:101DB000E0874FF00109FFF779FAA0EB0800B8427D
:101DC00006D3781C04D001E009E05BE003265BE069
:101DD000E08E0028CAD1E08F0028C7D140E0206BF8
:101DE000216800780873206B401C2063E08E401E41
:101DF000E0862FE02068816889070FD5E18E69B100
:101E0000B9F1010F0AD1216B09780173206B401CD5
:101E10002063E08E401EE0864FF000092068816854
:101E2000C9070CD0E18F51B1C068A16B0870A06BDD
:101E3000401CA063E08F401EE0874FF00109FFF7D0
:101E400035FAA0EB0800B84202D3781C02D0BAE7FA
:101E5000002FB8D0E08E0028CCD1E08F0028C9D167
:101E600042463946204601F0ABF818B10126202041
:101E700060650BE0A06818B92068C16880680090B0
:101E8000606D08B1012601E084F851A0002084F8BB
:101E90005000304627E710B5401EB0F1807F01D3D7
:101EA000012010BD4FF0E02460610F21601702F0A7
:101EB00079FF0020A06107202061002010BD0000F4
:101EC00070B590F83C20012A26D0012480F83C40CF
:101ED000022280F83D2003685A689D6822F070064F
:101EE0000A6832435A600D4B02689A4208D0B2F138
:101EF000804F05D00A4B9A4202D00A4B9A4204D135
:101F0000496825F080031943916080F83D40002125
:101F100080F83C10084670BD022070BD002C0140C6
:101F2000000400400008004010B5040003D094F8FD
:101F30003D0010B107E0012010BD002084F83C00F6
:101F4000204600F01FF8022084F83D00211D206883
:101F500002F030FB012084F8460084F83E0084F84B
:101F60003F0084F8400084F8410084F8420084F87F
:101F7000430084F8440084F8450084F83D000020C4
:101F800010BD000008B500680649884208D106481F
:101F9000C16941F00401C161C06900F00400009012
:101FA00008BD0000000800400010024090F83D10FD
:101FB000012901D001207047022180F83D100068FE
:101FC0000B49884208D0B0F1804F05D009498842BA
:101FD00002D00949884204D1816801F0070106292D
:101FE00003D0016841F0010101600020704700004A
:101FF000002C0140000400400008004001680A6A0B
:1020000041F211131A4207D10A6A9B101A4203D1F6
:102010000A6822F001020A60012180F83D100020C8
:10202000704770B5044690F83C000025012817D091
:10203000012684F83C60022084F83D002068826814
:1020400022F0770222F47F4282600868502838D05C
:102050000DDC20284FD005DC90B3102811D14AE0C8
:10206000022070BD302846D040280AD13BE06028CD
:102070002FD070280DD0B0F5805F03D0B0F5005F91
:1020800012D0012584F83D60002084F83C002846E9
:1020900070BDCB68D1E90121206802F0C1FA206847
:1020A000816841F0770109E0CB68D1E9012120681E
:1020B00002F0B6FA2068816841F480418160E1E76E
:1020C00019E0CA684968206802F0BCFA502120680B
:1020D00006E0CA684968206802F0C5FA60212068F5
:1020E00002F0A8FACEE7CA684968206802F0AAFAA6
:1020F00040212068F4E7226801461046F0E7704767
:1021000070B5044620680C3050E8001F21F490712F
:1021100040E80012002AF5D12068143050E8001F72
:1021200021F0010140E80012002AF5D1206B0128BE
:1021300009D120680C3050E8001F21F0100140E860
:102140000012002AF5D1206840694FF000054006D2
:1021500015D52068143050E8001F21F0400140E8F8
:102160000012002AF5D1E06B48B14563E06BFEF741
:10217000EBFD20B1E06BFEF757FE202806D0E58589
:10218000202084F842002563002070BD1020606488
:10219000032070BD704700000349884203D100212D
:1021A000024806F04BBD7047602A0020042400203E
:1021B000F8B5016804460868CA684B6910F00F0F4B
:1021C0004FF0000559D003F0010602F49077374331
:1021D00065D0C10705D0D10503D5616C41F001017F
:1021E0006164410705D5D90703D0616C41F0020154
:1021F0006164810705D5D90703D0616C41F0040102
:102200006164010707D502F02001314303D0616CFE
:1022100041F008016164616C00293AD0800604D560
:10222000900602D5204602F071FB20684069616C7F
:10223000C0F38010090700D460B3204602F031FBE0
:1022400020684069400621D52068143050E8001FFE
:1022500021F0400140E80012002AF5D1E06BA8B15E
:102260006D494163E06BFEF793FD002811D0E06BF0
:10227000416B01B0BDE8F040084783060FD59306D7
:102280000DD52046BDE8F84002F040BB2046FFF7E0
:1022900081FFF8BD2046FFF77DFF6564F8BD266B22
:1022A0002023012E7CD1C6067AD5D60678D50868BB
:1022B0004868009048694FF00206400640D5E16B3F
:1022C000086840680004000CE8D0A28D8242E5D97D
:1022D000E085886920282DD020680C3050E8001F48
:1022E00021F4807140E80012002AF5D120681430F2
:1022F00050E8001F21F0010140E80012002AF5D14A
:102300002068143050E8001F21F0400140E800121E
:10231000002AF5D184F84230256320680C3050E85B
:10232000001F21F0100140E80012002AF5D1E06BF7
:10233000FEF70AFD6663A08DE18D401A81B22AE0A6
:10234000A08DE18D401A81B2E08D0028A6D0002931
:10235000A4D022680C3252E8000F20F4907042E8BA
:102360000007002FF5D12068143050E8002F22F02C
:10237000010240E80027002FF5D184F842302563A0
:1023800020680C3050E8002F22F0100240E80023B3
:10239000002BF5D166632046FFF7B1FEF8BDFFE7DD
:1023A00005062BD5150629D594F841002128F5D12D
:1023B000A068B0F5805F01D12069B0B1206A411CEE
:1023C0002162216800784860E08C401E0004000C07
:1023D000E084E3D12068C16821F08001C1602068F9
:1023E000C16841F04001C160D8E7206A0088C0F3AD
:1023F00008004860206A801C2062E5E74006CDD5D1
:102400005006CBD5CA68204622F04002CA6084F844
:10241000413000F021F9C1E7A547000870B504007C
:1024200004D094F84100002510B106E0012070BDF1
:1024300084F84050204600F023F8242084F841001E
:102440002068C16821F40051C160204602F0C0FA42
:102450002068016921F4904101612068416921F0FF
:102460002A0141612068C16841F40051C16065647E
:10247000202084F8410084F842006563002070BD8C
:10248000F0B585B0002400940194029403940646AC
:10249000374F0368374902220320374DBB4226D10C
:1024A0008B6943F480438B618B6903F4804304930D
:1024B0008B6943F004038B618969039001F0040187
:1024C00004911102CDE9001269462846FEF7ECFDA1
:1024D0002815CDE90004694628460294FEF7E4FD7C
:1024E000002211462520FEF74DFF25203BE0234F1B
:1024F000BB423AD1CB6943F40033CB61CB6903F4DF
:10250000003304938B6943F004038B618969039062
:1025100001F0040104910421CDE900126946284626
:10252000FEF7C2FD0820CDE9000469462846029462
:10253000FEF7BAFD134D1248C5E900048020C5E935
:1025400002402C616C61AC612846EC61FEF718FD1D
:1025500008B1FEF7E0FBF5630022114626206E620B
:10256000FEF710FF2620FEF7FFFE05B0F0BD0000CD
:1025700000380140001002400008014000440040C3
:102580006C000240A82A002090F84230202B01D095
:102590000220704721B11AB10023036302F074BA1C
:1025A000012070470349884203D10121024806F007
:1025B00045BB7047602A00200424002070472DE9A5
:1025C000F843044690F841001F4616460D46202861
:1025D00002D00220BDE8F8837DB176B100206064AE
:1025E000212084F84100FEF761FEA6848046E6843F
:1025F000A068B0F5805F02D003E00120EAE720691F
:1026000010B12E4600250EE000260CE08021204669
:1026100002F082FAA0B9AEB116F8010B2168486049
:10262000E08C401EE084E08C43464FF000020097AF
:102630000028EBD14FF04001204602F06DFA30B196
:102640000320C7E735F8020BC0F30800E6E72020B7
:1026500084F841000020BDE77047FEE70B4810B545
:10266000094901600A4981600A4941600A49C1601B
:102670000A490161002181610948016803488847CE
:10268000BDE8104003F01ABCA52D0008D42300209B
:10269000B52C0008F52D0008552D0008012D000867
:1026A0008C93000870B516460D460446802804D267
:1026B00000200860A008106070BD04F0F7FD2860DD
:1026C000401FC440203C34602868801F286070BDD3
:1026D0002DE9F04F85B00024454800940194029400
:1026E0000394816941F010018161816901F0100159
:1026F0000491816941F020018161816901F020012B
:102700000491816941F004018161816901F0040152
:102710000491816941F0080181618069012200F022
:102720000800DFF8D0B05703049039465846FEF74A
:10273000B8FD002210213048FEF7B3FD4FF4806A47
:10274000002251462D48FEF7ACFD022601250097D8
:102750000396CDE9015469465846FEF7A5FC4FF4AF
:102760008048DFF89C90CDF80080CDE9019569465E
:102770005846FEF799FCE8038DE831006946584653
:10278000FEF792FC1020CDE90005CDE9024669462E
:102790001948FEF789FCCDF800A00396CDE9015455
:1027A00069461648FEF780FC41F610000090154877
:1027B000CDE9010469461148FEF776FC0097CDE9A2
:1027C000019569460D48FEF76FFCCDF8008069461B
:1027D0000A48CDE90145FEF767FC00221146282092
:1027E000FEF7D0FD2820FEF7BFFD05B0BDE8F08F55
:1027F000001002400010014000080140000C0140A0
:1028000000002110000011100F4810B50D490160A3
:102810004FF48271416000218160C1604FF4007209
:102820000161C0E905121822C0E9072141628162F5
:102830000A21C162FFF744F8002801D072B6FEE712
:1028400010BD0000003001407829002010B586B08E
:1028500000241748009401940294039404941349AB
:10286000059401604721C0E901144FF6FF71C0E9EA
:1028700003148461FFF758FB08B172B6FEE74FF40A
:102880008050009069460A48FFF7CBFB08B172B64A
:10289000FEE7049404A906480594FFF711FB0028FD
:1028A00001D072B6FEE706B010BD0000000800407F
:1028B000D0290020FEE7000002480021006804F053
:1028C00055BD00003000002070B506460D461020B2
:1028D00006F03AF9041E17D00022E5602260104885
:1028E000C4E90126416881B10C60416861604460BF
:1028F000C4F80020FFF7E0FF60B11D21C0E900141B
:10290000846000F06DF8204670BD44600460226071
:102910006260EFE7204600F025F8002070BD00005F
:102920003400002070B50E4D4FF0FF31286804F0E0
:1029300059FD202811D148680C4618B1816809B1A9
:1029400020468847207B012803D1206908B106F082
:10295000DBF82146286804F037FD002070BD000038
:102960003000002010B5041E26D014494B68A34245
:1029700002D00A68A24210D10022A34204D16368A7
:102980004B60636803B11A600B68A3420DD12368E2
:102990000B60216849B14A6007E0616809B12268AB
:1029A0000A60216809B16268F5E702F00EF9204675
:1029B000BDE8104006F0A8B810BD000034000020AB
:1029C00010B5054C002001466060A060034804F08B
:1029D000E5FC2060002010BD3000002008920008B7
:1029E000002804D001460248006804F006BD704784
:1029F00030000020FEE701220221032001F0F1BC9B
:102A00002DE9FF4791460D460646012A29D043A0ED
:102A100040F21E21CDE90010CDE902654A4B4BA2E0
:102A20004EA1032003F012FC4D4C04F1780804F190
:102A3000A80704F1640AC6B1012E59D1B9F1010FFA
:102A400026D0082D62D0092D52D194F8A400002878
:102A50004ED10122092104B00120BDE8F04701F068
:102A6000C0BC40A04FF40771D4E7012D40D104F061
:102A7000F9F82C2241463846FDF735FC504630F82F
:102A8000421FC18594F8A40084F8D600012038E0E4
:102A9000082D1ED0092D23D00A2D29D12C223946EC
:102AA0004046FDF720FCBAF87010AAF8421094F8DE
:102AB000D60084F8A40001281CD035A206210020ED
:102AC00001F01DFD03F0A4F994F8A400012813D02F
:102AD00016E000220921012001F083FC012005E01D
:102AE00000220821012001F07CFC002084F8D6009F
:102AF000BDE8FF8728A2E1E72948816B00208847CD
:102B0000002004B0BDE8F04701F095BC94F8A400A3
:102B10000128EDD1012208219DE70000427574745F
:102B20006F6E2052656C65617365642C205363720F
:102B300065656E49443A25643B20436F6E74726F3D
:102B40006C49443A25640000819200082E2E5C7581
:102B50007365725C6170702E63000000415050001C
:102B6000F0230020427574746F6E20507265737389
:102B700065642C2053637265656E49443A25643B55
:102B800020436F6E74726F6C49443A2564000000F4
:102B900064657669636500006761746577617900D3
:102BA0008C930008012807D1002B05D1052903D1FA
:102BB0000248521CC0F8B42070470000F0230020E7
:102BC000F8B51646012817D10225394C012914D031
:102BD000022922D0032933D0042942D003250D290C
:102BE0004FD00C2908D11046FDF7B3FB90B3304607
:102BF000FDF7C5FB84F8D500F8BD1046FDF7A9FB2D
:102C000028B13046FDF7BBFBC4F8AC00F8BD009519
:102C100000230121D4F8AC200EE01046FDF799FB0B
:102C200028B13046FDF7ABFBC4F8B800F8BD0095FD
:102C30000023D4F8B8200221012001F01BFCF8BDCC
:102C40001046FDF786FB30B13046FDF798FBC4F81F
:102C5000CC00F8BD25E0009500230321D4F8CC205A
:102C6000EAE71046FDF775FB28B13046FDF787FB14
:102C7000C4F8A800EDE7009500230421D4F8A820AB
:102C8000DAE71046FDF765FB28B13046FDF777FB24
:102C900084F8D400DDE70095002394F8D4200D21BA
:102CA000CAE70095002394F8D5200C21C4E7000062
:102CB000F02300202DE9F84380460F481E461746B2
:102CC000006B0D468047681D05F03EFF058047807C
:102CD000044606712A464146401DFDF704FB0120CB
:102CE000009006482346016841F202400A4601F07E
:102CF000F3FFBDE8F88300008C930008F023002068
:102D00001CB5094C206B804708A19220CDE9000139
:102D10000A4B0BA20EA1032003F098FAA16B02B09C
:102D20000020BDE8104008478C9300085261646998
:102D30006F205278204552524F52000035920008C1
:102D40002E2E5C757365725C6170702E63000000DE
:102D5000415050001CB50748006B804706A18C20ED
:102D6000CDE90001094B0AA20DA1032003F06EFA80
:102D70001CBD00008C930008526164696F2052787A
:102D80002074696D656F7574000000002992000859
:102D90002E2E5C757365725C6170702E630000008E
:102DA000415050001CB5084C206B8047A16B00209F
:102DB000884706A17820CDE90001084B08A20CA1A4
:102DC000032003F043FA1CBD8C9300085261646930
:102DD0006F20547820646F6E650000001492000824
:102DE0002E2E5C757365725C6170702E630000003E
:102DF000415050001CB50C4C206B80470BA180202B
:102E0000CDE900010E4B0FA212A1032003F01EFA20
:102E1000114890F8A400012805D1A16B02B0002050
:102E2000BDE8104008471CBD8C93000852616469DE
:102E30006F2054782074696D656F75740000000010
:102E40001D9200082E2E5C757365725C6170702E89
:102E50006300000041505000F023002030B4B0F86F
:102E6000031045784CBAB0F805108378C27949BA96
:102E70000D2D26DD0F2D24D0552D1FD0B12D20D1A5
:102E8000012B1ED0103A0B2A1BD2DFE802F0060BF2
:102E90001A1A1A1A1A1A1A1A1100427A204630BC43
:102EA000FFF7AEBD00F10802204630BCFFF788BE38
:102EB000437A027A204630BCFFF774BE30BCFFF77D
:102EC0009ABD30BC7047002801D040680047704769
:102ED00070B5092000F07BFC0546062000F077FC69
:102EE0000404072000F073FC44EA0024082000F0EA
:102EF0006EFC2043FDF700FC0022184BFDF7F3FAAF
:102F0000FDF707FC04460021092001F019FA3B20D7
:102F100000F05DFC40F040013B2001F011FA3B2045
:102F200000F055FC8006FAD40D4800F03FFD3B2030
:102F300000F04DFC40F040013B2001F001FA3B2045
:102F400000F045FC8006FAD42946092001F0F8F982
:102F50002046BDE8704000F029BD000080844E404E
:102F600000A1BC33F8B5044640684FF48273984220
:102F700017D1A0684FF48065B0F5004F01D0A8428A
:102F80000FD12068066826F0400606606068984207
:102F900007D1A068A84204D100920B46002201216B
:102FA00003E000920B4600228021204600F018F832
:102FB000002804D0606D40F0200060650320F8BD5B
:102FC00038B50B46009204460022802100F008F834
:102FD000002804D0606D40F020006065032038BDFB
:102FE0002DE9F8431E46914688460446089DFEF7A3
:102FF0005DF9401B351AFEF759F907462548006868
:10300000C0F3CB30684338E0701C37D0FEF74EF980
:10301000C01BA84203D215B1009860B32CE0206811
:10302000416821F0E00141606068B0F5827F0BD11A
:10303000A068B0F5004F02D0B0F5806F04D12068D1
:10304000016821F040010160A06AB0F5005F09D17C
:103050002068016821F4005101602068016841F492
:1030600000510160012084F85100002084F85000D4
:103070000320BDE8F8830025401E00902068816889
:1030800038EA010004D000214945BDD10020F0E715
:103090000121F9E7700000200249014808607047EB
:1030A000782900204C2800200120704703498842DD
:1030B00001D28020704700207047000040DD4A1F89
:1030C00001480079704700004C2800202DE9F34F9B
:1030D0000100714E81B04FF000000BD001297DD16D
:1030E0000024306C2546072853D0082854D00928DE
:1030F00057D154E0B246F069FDF7FEFA81460E461C
:103100000298FDF7F9FA07468846302000F05FFB89
:1031100030F0F9004FF0000401D0604D00E00025D0
:10312000272000F054FB20F0F800BAF82010401CD3
:103130000844FDF7E1FA9AF82220012A4FF0000234
:1031400022D0564BFDF728F922462B46FDF724F9ED
:103150003A464346FDF720F99AF82420012A4FF019
:10316000000213D05FF00003FDF716F90322FDF70C
:103170009BFA4A463346FDF728FA0022484BFDF7F2
:10318000B2F904F0A1FA7FE00023DBE74FF08043BF
:10319000EAE70024434D04E00024434D01E0434DA1
:1031A000002456F8447F0120B840FDF794FA024607
:1031B0000B4620462946FDF708FA02460B4600203A
:1031C0003649FDF702FA04460D46F088FDF794FAF9
:1031D0000022374BFDF7E0F8224600E059E02B468D
:1031E000FDF781F9834600917079001DFDF784FA9F
:1031F00082463079884600B10220C0EB8700FDF797
:103200007BFA064602988946C000794200EB8101AC
:10321000214890F84E0001EB00111F4890F84C0037
:1032200000B11420081A1C30FDF766FA32464B46EE
:10323000FDF7CBF902F0B0FE52464346FDF753F9D5
:10324000002207460E461346FDF77CFA02D23846A6
:10325000314601E0002001460022164BFDF79CF8A4
:1032600022462B46FDF73FF902460B465846009989
:10327000FDF792F800220A4BFDF735F90E4A0F4B85
:10328000FDF78AF803F042FB03B0BDE8F04FFDF70D
:1032900040BABDE8FE8F00004C2800200000F03F3F
:1032A00000408F408084FE4080840E4180841E4117
:1032B00000001140000020402B8716D9CEF7EF3FC9
:1032C00070B519494860FFF7E7FE01F059FA174950
:1032D000174801F0FFF916481449443001F0FAF993
:1032E00013481249883001F0F5F900F0CFFAFFF7E2
:1032F000EFFD002000F0C6FB0E4D002404EB440659
:10330000A85D00F08DFB70198178407801F018F805
:10331000641CE4B2102CF1D3012000F081FB0449BD
:1033200000206039087170BD5C000020093700087A
:10333000AC280020AC92000870B514460E46054635
:1033400000F06EFB304600F031FB052000F09AFBE8
:103350000120FDF77BFE284600F078FA054600F0D4
:1033600023FEA54201DD002070BD012070BD0000DC
:103370002DE9FC4100258DF800508DF80450904C4B
:10338000904E2079012809D002285ED104F1600016
:1033900001F0D6F9607901287ED101E1607910B39E
:1033A000012852D14021122000F0CAFF122000F063
:1033B0000EFA8DF80000182000F009FA8DF80400CC
:1033C0009DF80000C0060DD51021122000F0B8FFB6
:1033D0007B48A43001F0B4F97068002802D000697D
:1033E000002873D180E094F82400012835D13F20D3
:1033F00000F0EDF98DF800009DF8000080072CD456
:103400000B213E2000F09CFF10213F2000F098FF90
:103410006B48A43001F094F994F82600B8B10D205F
:1034200000F0D5F940F040010D2000F089FF64481C
:10343000E83001F06AF9706810B1006900B18047A6
:1034400004F82C5F6570A5816581BDE8FC815C484E
:10345000E83001F075F92571EDE7E08E5A4F08B9B3
:10346000218F21B1228F801AC1B2D0190CE094F8BB
:10347000220060B3322000F0AAF9E08694F83610FA
:10348000208F091AC9B2384400F0DAF9E08E20879B
:1034900094F8260010B300E086E00D2000F097F9C4
:1034A00040F040010D2000F04BFF4548A43001F0F2
:1034B00047F970680028C3D08668002EC0D094F900
:1034C0002E20E18E00234048B047B9E773E0FFE7C4
:1034D0003B480121363000F0B3F9CFE73848257179
:1034E000E83001F012F9E0E79DF80000800610D501
:1034F0002021122000F024FF94F8520000B9257119
:103500002F48A43001F01CF9706800289DD0006994
:103510004FE0192000F05BF940B284F85800010632
:1035200005D5C043401CC0F38500474201E0C0F30D
:1035300085071A2000F04BF92449A268002F06DA0B
:1035400000EB20108A42384405D99D3804E08A42B5
:1035500000EB2010F9D8A438A4F85A00132000F08A
:1035600036F984F85C000146174800F069F994F8D0
:10357000520000B925711248A43001F0E1F87068DA
:103580000028C3D08568002DC0D014F9583FAC4640
:10359000B4F90220217902B00B48BDE8F041604740
:1035A0000821122000F0CCFE257170680028ADD0F3
:1035B00000680028AAD002B0BDE8F0410047000032
:1035C0004C2800205C0000204C27002040DD4A1FD2
:1035D00070B52F4C204623794279C18E008FA4F517
:1035E0008075012B13D0022B4BD1002A49D10A1A26
:1035F000234694F83B101B8F284618448A4241DD2D
:1036000000F0D4FE208F94F83B10084438E0AAB1B3
:10361000012A36D11E48A43001F092F880211220F0
:1036200000F08EFE002020711A484068002828D043
:10363000C068002825D0BDE87040004739B930B9CE
:1036400094F8220088B1322000F0C1F8E086E18EC3
:10365000208F0A1A94F83A108A420CDD284400F0B0
:10366000EFF8208F94F83A10CFE70948012136305F
:1036700000F0E6F8EBE7D1B2284400F0E1F804E00E
:10368000208770BDD1B200F091FEE08EF8E7000017
:103690004C2800205C000020F8B500258DF8005073
:1036A000174E7079002829D0012827D1122000F068
:1036B0008EF8144CC0070CD035710521122000F093
:1036C0003FFE6068002819D08169002916D00120CA
:1036D00010E0182000F07BF88DF80000357104210F
:1036E000122000F02DFE6068002807D081690029B3
:1036F00004D0002001B0BDE8F0400847F8BD00004C
:103700004C2800205C00002070B51F4D00241F4E87
:10371000287901280BD0022835D12C717068002837
:1037200031D0406800282ED0BDE87040004768794D
:10373000B8B985F82C4085F82D402C87EC860B21F4
:103740003E20263500F0FCFD10213F2000F0F8FD62
:1037500015F82609012809D00B482C71E83000F033
:10376000EFFF706800280ED0C068DBE70D2000F086
:103770002EF840F040010D2000F0E2FD0248E83054
:1037800000F0C3FFEDE770BD4C2800205C00002076
:1037900070B50025012000F043F9FF21112000F051
:1037A000CFFD052000F06EF900240120FDF74EFC4E
:1037B0002C2000F00CF800F00100A040641C054330
:1037C000E4B2202CF1D300F0EFFB284670BD08B521
:1037D0000122694600F004F89DF8000008BD0000D1
:1037E0002DE9F743134E1746884600221021304634
:1037F000FDF757FD9DF800000F4C00F07F008DF89D
:1038000000004FF49673012269462068FEF795F98F
:103810000A4D4FF4FA733A46287041462068FEF785
:10382000E1F82870012210213046FDF73AFDBDE88D
:10383000FE830000000801404C2800205C000020AE
:103840000A4601460020FFF7CBBF000010B520B1AB
:10385000012808D04FF0FF3010BD1120FFF7B7FF4F
:103860004008404210BD07480749806888424FF031
:103870001B0003D9FFF7ABFF9D3810BDFFF7A7FF73
:10388000A43810BD4C28002040DD4A1F70B5094DFA
:103890004FF48064002221462846FDF702FD0120F6
:1038A000FDF7D4FB21462846BDE870400122FDF714
:1038B000F8BC0000000C014073B5394C05460020EF
:1038C000617911B1012967D12AE0002020879DF894
:1038D0000410E18694F8220050B1322000F030FD4F
:1038E0009DF80420501E3F2807D884F83B200BE0A9
:1038F000012101A800F05AFDF2E729462948FCF70A
:10390000F2FC202084F83B0094F83B102846283431
:1039100000F04CFD208AE17C0844208220683BE0D6
:1039200094F8510001284FF0330021D0FFF74FFFEA
:1039300000F0BE013320491C00F002FD1D213B2098
:1039400000F0FEFC9DF8041084F85C10222000F0CA
:10395000F7FC00210E2000F0F3FC00210D2000F008
:10396000EFFC0120FFF733FF30F0F80009D00DE045
:10397000FFF72DFF00F0BE01332000F0E1FC19211C
:10398000DDE700F023FB0120FDF760FB9DF804104C
:10399000284600F00BFD606D00F022FB7CBD0000AE
:1039A0004C2800204C270020704770470D4910B567
:1039B0008860FCF7A1FE00220B4BFCF706FEFCF72B
:1039C000A8FE0446C0F30741062000F0B9FCC4F38A
:1039D0000721072000F0B4FCE1B2BDE81040082048
:1039E00000F0AEBC4C28002080844E4070B50D46DF
:1039F000044600F015F824B1012C0DD129462320EE
:103A000006E0064890F82200002805D12946322019
:103A1000BDE8704000F094BC70BD00004C28002050
:103A2000174910B54A79824228D0487101284FF0D1
:103A300000000FD000F026F80120FFF7C8FE00F0CC
:103A40007F01012000F07CFC0021402000F078FC88
:103A500030210EE000F016F80120FFF7B8FE40F02C
:103A60008001012000F06CFC0021402000F068FC87
:103A70000021BDE81040412000F062BC10BD0000F4
:103A80004C28002010B5040013D00020FFF78DFF54
:103A9000032C12D05FF00000FFF786FF0120FFF734
:103AA00096FE00F0F8012143BDE81040012000F02F
:103AB00047BC0120FFF779FFF0E70120ECE70000A9
:103AC00010B504460648210AA0F84A40202000F01C
:103AD00037FCE1B2BDE81040212000F031BC00000D
:103AE0004C2800202DE9F0419A4C054600266079CB
:103AF00010B1012824D124E014F8266F4020FFF7EC
:103B000066FE00F0030040F00C01402000F018FCBD
:103B10004120FFF75CFE40F0C101412000F010FCA5
:103B20003520FFF754FE00F03F0020751E210D20C8
:103B300000F006FC0020A071E07160822082263C2B
:103B400096E094F8510001284FF0330025D0FFF79C
:103B50003EFE00F0BE013320491C00F0F1FB1D21A8
:103B60003B2000F0EDFB206C09284FF031007CD2A7
:103B7000FFF72DFE00F07F01312000F0E1FB002176
:103B8000302000F0DDFB206C092855D2DFE800F082
:103B90000E18222C364050505000FFF718FE40F00F
:103BA0004101332000F0CCFB1921D9E748212F2017
:103BB00000F0C6FBA068FCF79FFD0022664B30E0DA
:103BC00044212F2000F0BCFBA068FCF795FD0022EB
:103BD000624B26E044212F2000F0B2FBA068FCF7E6
:103BE0008BFD00225E4B1CE044212F2000F0A8FB3F
:103BF000A068FCF781FD00225A4B12E044212F20DF
:103C000000F09EFBA068FCF777FD0022564B08E011
:103C100044212F2000F094FBA068FCF76DFD0022EA
:103C2000524BFCF7B9FBFCF774FDFFF7BFFE03E056
:103C300040212F2000F084FB94F84F0094F852604C
:103C4000012831D01F21112000F07AFB4020FFF71E
:103C5000BEFD00F03F01402000F072FB00210F206C
:103C600000F06EFB00210D2000E017E000F068FB83
:103C70004FF480713E48FCF74FFB0120207145B1A5
:103C800034482946A43000F03EFD3248A43000F00C
:103C90003CFD607990B1EEB3052054E0FFF797FD4D
:103CA00040F080013120C5E71D21112000F048FBC4
:103CB0004020FFF78CFD00F03301CCE70520FFF733
:103CC000E1FE002E43D1A046E069FCF715FD054654
:103CD0000E462720FFF77BFD20F0F800FCF70CFDD7
:103CE0000022244BFCF758FB07460C46B8F820008E
:103CF000FCF702FD3A462346FCF74EFB00221E4B22
:103D0000FCF74AFB0322FCF7CFFC2A463346FCF7BC
:103D10005CFC00E016E00022184BFCF7E4FB02F02C
:103D20003BF90022164BFCF737FBFCF7F2FC01468F
:103D30000848E83000F0E7FCBDE8F0410548E8300D
:103D400000F0E3BC0620BDE8F041FFF79BBEBDE8F4
:103D5000F08100004C2800200082BE40005AC44080
:103D60000082CE408057D4408084DE40C058E4407A
:103D70004C2700200000F03F0000244000408F400E
:103D8000000010402DE9FF4F81B09946DDE9116A2E
:103D9000DDE90F7B14460D46DDF84C800198FFF7F6
:103DA0003FFE7E483A0A0199009221B101297DD156
:103DB000032D4ED9FEE740F8145F84600E994160F0
:103DC000867380F80FA080F81080169941741799B7
:103DD000817487812046FCF78FFC02460B46002049
:103DE0006F49FCF7F2FBFCF794FC84B2210A022035
:103DF00000F0A6FAE1B2032000F0A2FA2846FCF790
:103E00008DFF0146122000F09BFA0E98FCF786FF0A
:103E10000146132000F094FA2520009900F090FA52
:103E2000F9B2262000F08CFA0EB1514600E0FF21D5
:103E3000322000F085FA3020FFF7C9FC00F06F0057
:103E40000EB1002100E08021084340EA0811302033
:103E500092E0AD1DE0E910540C2C80F809904781E8
:103E6000067380F80DA080F80E801499C17315991F
:103E70000174169941741799817401D90C2402E0D8
:103E8000062C00D206244548012180F848101D2048
:103E9000FFF79DFC290141EA49003043C1B21D20D2
:103EA00000F04EFA1E20FFF792FC00E073E000F0F5
:103EB000080040EA041141EA8800032202EA1B21BB
:103EC0000843C1B21E2000F03BFA2620FFF77FFC1A
:103ED00000F0F701314890F8480041EAC000C1B253
:103EE000262000F02DFA0BF0FF011F2000F028FA29
:103EF0002020009900F024FAF9B2212000F020FAE5
:103F00001EB15146222000F01BFA244E96F84F00B5
:103F100001280CD14420FFF75AFC40F080014420D6
:103F200000F00EFA96F85010242000F009FA092D3E
:103F300002D0032136200FE01A49B06888424FF0C2
:103F400002014FF0360003D900F0FAF9642102E0D3
:103F500000F0F6F97F213A2000F0F2F9062C4FF03C
:103F600031000ED0FFF733FC00F0F8013120C91CFE
:103F700000F0E6F90A21372005B0BDE8F04F00F067
:103F8000DFB9FFF724FC00F0F8013120491D00F0F3
:103F9000D7F90C21EFE705B0BDE8F08F4C280020E1
:103FA00080847E4140DD4A1F10B5074800F0C8FB01
:103FB0000548443800F0C4FB0020FFF763FD0249C8
:103FC0000020A439087110BDF028002010B5012090
:103FD000FFF758FD01490020087110BD4C28002052
:103FE00010B50146254800F08EFB244C603C6079FA
:103FF00010B101282DD119E04020FFF7E8FB00F0B7
:10400000030040F01001402000F09AF94120FFF732
:10401000DEFB00F03E01412000F092F93520FFF771
:10402000D6FB00F03F0084F83A0012E094F84F000D
:10403000012818D0F721112000F082F94020FFF765
:10404000C6FB00F03F0000BF40F04001402000F000
:1040500077F902202071094800F057FBBDE81040B5
:104060000320FFF70FBDF521112000F069F9402072
:10407000FFF7ADFB00F03300E6E70000AC280020BE
:104080002DE9FF4F81B09A46DDE910790C46DDF845
:1040900048800E9E0198FFF7C3FC0920FFF797FBAD
:1040A00000904D20FFF793FBDFF84CB20546DBF89C
:1040B0000800FEF7FBFF009901F07F01084340F084
:1040C0007000010636D5112C02DD45F0070502E02F
:1040D00005F0F8052D1DE943490703D0022C0CDA41
:1040E00002240DE0052C01DA052402E0142C00DD89
:1040F000142400F0F001601F05E0112C00DD1124F4
:1041000000F0F001A01E00F00F000143092000F0B4
:1041100017F929464D2000F013F9390A019800914A
:10412000A8B101287ED15D468BF83C40BAF1030F5F
:104130005FD9FEE74FF0FF318C4201DA0C4602E016
:104140000E2C00DD0E2400F0F001601CDBE78BF884
:104150000C4058460399CBF81C60C0E9041AABF830
:1041600020708BF822908BF8248015998BF82510FD
:104170001699CBF828100398FCF7BEFA00225F4B83
:10418000FCF723FAFCF7C5FA84B2210A042000F0F8
:10419000D7F8E1B2052000F0D3F83046FCF7ACFACE
:1041A00002460B4600205649FCF70FFAFCF7B1FA1D
:1041B00084B2210A022000F0C3F8E1B2032000F02B
:1041C000BFF82520009900F0BBF8F9B2262000F0D6
:1041D000B7F83020FFF7FBFA00F06F00B9F1000FDD
:1041E00001D0002100E08021084340EA081130207E
:1041F0006FE00AF10604C5E910460F9885F84900FA
:10420000A5F84A7085F84C90139885F84F001499DA
:1042100085F8501085F84E80159985F8511016993B
:10422000696500E064E00C2E01D90C2602E0062E40
:1042300000D20626012185F8481001280CD144201F
:10424000FFF7C5FA40F08001442000F079F895F8B6
:104250005010242000F074F81D20FFF7B8FA0F98D2
:10426000210141EA400040EA0900C1B21D2000F0EE
:1042700067F81E20FFF7ABFA00F00B0040EA0611CA
:1042800041EA8800C1B21E2000F05AF82620FFF74C
:104290009EFA95F8481000F0F70040EAC100C1B25C
:1042A000262000F04DF82020009900F049F8F9B2DE
:1042B000212000F045F8062E4FF031000ED0FFF718
:1042C00086FA00F0F8013120C91C00F039F80A2103
:1042D000372005B0BDE8F04F00F032B8FFF777FAAD
:1042E00000F0F8013120491D00F02AF80C21EFE719
:1042F00005B0BDE8F08F00004C28002080844E40BF
:1043000080847E4110B50D4C6079002814D00128BE
:1043100012D1FA21112000F013F84020FFF757FACC
:1043200000F03F01402000F00BF803202071BDE8B1
:1043300010400720FFF7A6BB10BD00004C2800204E
:1043400013B5012201A900F001F81CBD2DE9F743C6
:10435000134E17468846002210213046FCF7A1FF75
:104360009DF800000F4C40F080008DF800004FF4E5
:104370009673012269462068FDF7DFFB0A4D4FF472
:10438000FA733A46287041462068FDF7D6FB28703C
:10439000012210213046FCF784FFBDE8FE830000B7
:1043A000000801404C2800205C0000200A4601461D
:1043B0000020FFF7CBBF000001B56E230122694644
:1043C0000148FEF7FCF808BD602A002010B504463D
:1043D00003E000BFFFF7F0FF641C20780028F9D14C
:1043E00010BD70B5054616460C46EE20FFF7E4FFFB
:1043F000B120FFF7E1FF1020FFF7DEFF280AFFF7EB
:10440000DBFFE8B2FFF7D8FF200AFFF7D5FFE0B2E5
:10441000FFF7D2FF3046FFF7CFFFFF20FFF7CCFFBB
:10442000FC20FFF7C9FFFF20FFF7C6FFBDE8704083
:10443000FF20FFF7C1BF10B50446EE20FFF7BCFF19
:10444000B120FFF7B9FF0020FFF7B6FF200AFFF702
:10445000B3FFE0B2FFF7B0FFFF20FFF7ADFFFC2096
:10446000FFF7AAFFFF20FFF7A7FFBDE81040FF20DE
:10447000FFF7A2BF2DE9F04106461F4614460D4640
:10448000EE20DDF81880FFF797FFB120FFF794FFCB
:104490000720FFF791FF300AFFF78EFFF0B2FFF71A
:1044A0008BFF280AFFF788FFE8B2FFF785FF0FB1FF
:1044B000012000E00020FFF77FFF08F00F0040F030
:1044C0008000FFF779FF200EFFF776FFC4F3074067
:1044D000FFF772FFC4F30720FFF76EFFE0B2FFF7AC
:1044E0006BFFFF20FFF768FFFC20FFF765FFFF2051
:1044F000FFF762FFBDE8F041FF20FFF75DBF70B539
:10450000054616460C46EE20FFF756FFB120FFF792
:1045100053FF1020FFF750FF280AFFF74DFFE8B2C6
:10452000FFF74AFF200AFFF747FFE0B2FFF744FF1B
:104530003046FFF74BFFFF20FFF73EFFFC20FFF761
:104540003BFFFF20FFF738FFBDE87040FF20FFF77B
:1045500033BF30B58FB028216846FBF7DDFE14214C
:104560000AA8FBF7D9FE01210804CDE900100024B8
:10457000029402250491CDE907504FF4E010099010
:104580006846FDF70DF808B172B6FEE70F20CDE9D9
:104590000A054FF48060CDE90C4002210AA80E9470
:1045A000FCF722FF002801D072B6FEE70FB030BD45
:1045B00070470000F0B50268164B174C174D4FF0CE
:1045C0008047984205D0B84203D0A04201D0A8420B
:1045D00003D122F070064A683243984205D0B842AF
:1045E00003D0A04201D0A84203D122F44074CA688B
:1045F00022434C6922F08002224302608A68C26230
:104600000A688262984201D109690163012141610E
:10461000F0BD0000002C01400004004000080040F4
:1046200010B5846842EA032224F47F440A432243FB
:10463000826010BD826822F070020A4342F00701D6
:104640008160704710B5036A046A24F001040462B3
:10465000846924F0F00444EA021423F00A020A43B5
:104660008461026210BD10B5036A046A24F010046C
:104670000462846923F0A00324F4704444EA023203
:1046800043EA01118261016210BD0000104D4FF03C
:10469000FF363146686802F0A5FE2028F9D10C00EB
:1046A000F7D060680028F4D02178012906D00229CB
:1046B00007D0032907D100F01DF804E000F029F825
:1046C00001E000F041F82146686802F07DFEE0E775
:1046D0005400002070B50D4604464421FBF71CFE33
:1046E00003486560606204F10C00A06270BD0000C8
:1046F000C72E000810B5044600F026F82046BDE895
:10470000104000F006B8016070470146012000F03B
:1047100023B810B50446806848B102F015FFA068C0
:1047200000280CD02168BDE8104002F001BF2246ED
:10473000002104F1240002F0D9FEA060F0E710BDD2
:104740000146022000F008B8002804D08068002844
:1047500001D002F0F9BE704770B5084C0D46064610
:104760000021606802F002FE010006D00E704D606C
:104770006068BDE8704002F040BE70BD540000208B
:1047800010B50021054802F009FE054C00216060CB
:104790000248103802F082FE206010BDA09200088E
:1047A0005400002010B5406A0021C185C184FDF786
:1047B000F1FC10BD70B5446A2068406994F841105E
:1047C000C0F3C0100025212904D118B1E58420468A
:1047D00000F08EF82068406994F84210C0F3801011
:1047E000222904D118B1E585204600F05AF8606C02
:1047F00040F0100060642046FDF7CCFC70BD10B5A1
:104800000146406A096809684FF0000289062ED403
:10481000C28501680C3151E8003F23F4807341E800
:104820000034002CF5D10168143151E8003F23F029
:10483000010341E80034002CF5D10168143151E83E
:10484000003F23F0400341E80034002CF5D1202143
:1048500080F84210016B012909D101680C3151E83F
:10486000003F23F0100341E80034002CF5D14263EF
:10487000016B012902D0FDF795FE10BD818DFDF77A
:104880003EFC10BD10B5406A01214163016B012956
:1048900002D0FDF793FE10BD818D4908FDF72FFC76
:1048A00010BD01680C3151E8002F22F4907241E8EC
:1048B0000023002BF5D10168143151E8002F22F0BC
:1048C000010241E80023002BF5D1016B012909D138
:1048D00001680C3151E8002F22F0100241E800235A
:1048E000002BF5D1202180F8421000210163704790
:1048F00001680C3151E8002F22F0C00241E800238A
:10490000002BF5D1202180F84110704708B590F8B0
:104910004210222901D0022008BD82684FF4805342
:104920009A4201D1016921B1816A9A421BD04AB1F0
:104930000AE00268816A5268C2F308020A80816A4A
:10494000891C08E0026972B10268526802F07F02B5
:104950000A70816A491C8162C18D491E0904090CD3
:10496000C18503D01BE002685268F1E70168CA689C
:1049700022F02002CA600168CA6822F48072CA600C
:1049800001684A6922F001024A61202180F8421040
:1049900000214163026B012A03D0FDF703FE0020D2
:1049A00008BD016301680C3151E8002F22F01002AC
:1049B00041E80023002BF5D101680A68D20602D530
:1049C0000A6849680091818DFDF799FBE7E70000CF
:1049D00070B5044600680169E26821F44051114352
:1049E00001612169A0680843616908432168CA68B8
:1049F00041F20C639A430243CA6020684169A2698C
:104A000021F44071114341611E492068884202D15E
:104A1000FCF790FD01E0FCF77DFD00EBC00101EB30
:104A20000012606864218000B2FBF0F3B3FBF1F385
:104A30006FF018067343B2FBF0F5B2FBF0F605EB2E
:104A40008305322303EB0515B5FBF1F5B6FBF1F653
:104A500005F0F00505EB0615B2FBF0F6B2FBF0F041
:104A6000B0FBF1F06FF01802504306EB800003EB4F
:104A70000010B0FBF1F0216800F00F0028448860BE
:104A800070BD00000038014038B58162044682855F
:104A9000002013466064222284F84220E56B1B4A02
:104AA000AA62E56B1A4AEA62E56B1A4A2A63E26B6C
:104AB00050630A462168E06B091DFCF78FFA2068F5
:104AC000016840680090206948B120680C3050E8C7
:104AD000001F41F4807140E80012002AF5D12068DF
:104AE000143050E8001F41F0010140E80012002A94
:104AF000F5D12068143050E8001F41F0400140E833
:104B00000012002AF5D1002038BD0000FF47000840
:104B100085480008B54700082DE9F041984617463A
:104B20000E460446069D27E0681C25D02DB1FCF7F3
:104B3000BDFBA0EB0800A8421ED920680C3050E84D
:104B4000001F21F4D07140E80012002AF5D120683E
:104B5000143050E8001F21F0010140E80012002A43
:104B6000F5D1202084F8410084F84200002084F828
:104B700040000320BDE8F0812068006836EA0000AC
:104B800004D00020B842CFD00020F3E70120F9E79D
:104B90000148FDF70DBB0000182A002008B50948A0
:104BA000FDF706FB074800680168C943C90607D43A
:104BB000016840680090BDE808400248FDF7ECBA83
:104BC00008BD0000602A0020FEE710B5044600F092
:104BD00071F8002803D000F03FF82046F7E710BD39
:104BE0002DE9F04180461D4616460F46542003F03D
:104BF000ABFF041E24D05421FBF78EFB27612573E5
:104C0000C4F8088012486661206304F118006063EC
:104C100015B1012D03D009E02246002101E0224612
:104C2000012104F1300002F061FCA0630948002179
:104C300042683AB114604268626044602160204674
:104C4000BDE8F0814460046021606160F7E7000026
:104C50008D7500083C00002010B5040027D0A06B23
:104C600002F05AFC12484268A24202D00168A142F6
:104C700010D10021A24204D162684260626802B190
:104C800011600268A2420DD122680260206848B11A
:104C9000416007E0606808B121680160206808B1E0
:104CA0006168F5E72046BDE8104003F02DBF10BD58
:104CB0003C0000200146044802E082688A4202D09B
:104CC00000680028F9D170473C000020002802D07D
:104CD000806B02F02DBC70472DE9F0411C46154653
:104CE0000E460746DDF81880FDF7E6FD002809D0DE
:104CF0000760C0E9016580F80C800461BDE8F041FF
:104D0000FDF76EBEBDE8F081002803D04169806BDD
:104D100002F00EBC7047000002480021C160016132
:104D200008467047300000200FB4054B10B503A9AA
:104D3000044A029800F040F910BC5DF814FB000032
:104D4000E9690008A80000200FB41CB50246002045
:104D500007AC00290BD0491ECDE90021054B6A465E
:104D60002146069800F028F9009A002111701CBC19
:104D70005DF814FBE75600087CB5044600201D468C
:104D8000164600290BD0491ECDE90041044B6A4666
:104D90002946304600F010F9009A002111707CBDC0
:104DA000E75600080907090E002804DB00F1E0209F
:104DB00080F80014704700F00F0000F1E02080F848
:104DC000141D704700487047AC00002002E008C87E
:104DD000121F08C1002AFAD170477047002001E075
:104DE00001C1121F002AFBD1704700002DE9FF5FAF
:104DF00082B00021DDE90430020DDDF840B003434C
:104E000018D044F61050A2F2FF3242431514119804
:104E100001281FD0A5EB0B00401C5FEA000A4FF0F1
:104E200000064E4FDFF83891B046504615D5CAF10E
:104E3000000413E0119801244AA3012801D16FEA6C
:104E40000B010298119AC0E90031C0E9024206B094
:104E5000BDE8F09FCBF10000DFE704460021404AA7
:104E6000491842EB0450CDE9001012E0E00707D0EA
:104E700032463B4640464946FBF735FB804689466D
:104E800032463B4610461946FBF72DFB06460F46B9
:104E90006410002CEAD1DDE90401DDE90023BAF158
:104EA000000F06DAFBF71FFB42464B46FBF71BFBE6
:104EB00005E0FBF78AFB42464B46FBF786FB0446C0
:104EC0000E460022284BFBF73DFC03D84FF0FF3085
:104ED000014607E00022254B20463146FBF75CFAED
:104EE000FBF758FD102409E0002C0ADB0A220023FE
:104EF000FBF7B8F9039B30321A55641E50EA0102E1
:104F0000F2D1641C039AC4F111031444119A012ACA
:104F100003D0012208430DD10AE0084304D0002049
:104F20004FF0110B119072E7A3EB0B056D1E0DE016
:104F30005B4504DD4FF0000205F1010504E003DAF2
:104F40004FF00002A5F10105002AECD0029811995A
:104F5000C0E90231C0E9004579E7000000001440D3
:104F60000000F03F300000000000F0430000E03F90
:104F700010B5002A06DA22F00042D21D22F0070303
:104F8000102203E0D21C22F003030C2213B19C1860
:104F90008C4201D9012010BD024401448360C0E964
:104FA0000021C91AD018884202D810600246F9E7D9
:104FB0000020106010BD00002DE9FF4F95B09B460A
:104FC0008946064600250FE2252877D1002427468A
:104FD000F84A0121059400E0044316F8013F203B04
:104FE00001FA03F01042F7D130782A2811D06FF07F
:104FF0002F033078A0F13002092A16D8059A44F020
:10500000020402EB820203EB42021044761C05907C
:10501000EFE759F8042B0592002A03DA504244F4D2
:105020000054059044F00204761C30782E2816D1E6
:1050300016F8010F44F004042A280DD06FF02F0257
:105040003078A0F13003092B09D807EB870302EB76
:105050004303C718761CF3E759F8047B761C3078B5
:105060006C280FD006DC4C2817D068280DD06A2891
:1050700014D104E0742810D07A280FD10DE044F444
:1050800000140AE044F4801401E044F440147278FF
:10509000824202D104F58014761C761C3078662892
:1050A0000BD013DC582877D009DC002875D04528B0
:1050B000F6D04628F4D047281AD19DE118E063289D
:1050C00035D0642879D0652812D195E1702873D045
:1050D00008DC6728F1D069286FD06E280DD06F28C2
:1050E00006D1B5E073282CD0752875D0782874D0F7
:1050F0005A46179990476D1C75E1C4F30250022877
:1051000009D003280DD0D9F8001004280DD00D6067
:1051100009F1040967E1D9F80010EA17C1E9005262
:10512000F6E7D9F800100D80F2E70D70F0E719F8F6
:10513000041B8DF8001000208DF80100EA460120C4
:1051400003E059F804AB4FF0FF3061074FF0000166
:1051500002D40DE008F101018846B9420FDA80451A
:10516000F8DB1AF808100029F4D108E008F1010171
:1051700088468142FADB1AF808100029F6D1059812
:105180005B46A0EB080721463846179A00F094FAD0
:10519000284400EB080507E04DE029E10DE01AF88E
:1051A000010B5A4617999047B8F10108F7D25B46B0
:1051B00021463846179A13E142E00A220092C4F3CE
:1051C00002524FF0000A022A08D059F804CB032AF1
:1051D0004FEAEC710AD00DE029E02AE009F107015D
:1051E00021F00702F2E802C1914609E00FFA8CFCB7
:1051F0004FEAEC71042A03D14FFA8CFC4FEAEC71B0
:10520000002907DA0A460021DCF1000C61EB0201FB
:105210002D2202E0220504D52B228DF80420012244
:1052200003E0E20701D02022F7E7904659E00A2187
:1052300002E010220DE010214FF0000A00910BE077
:1052400010224FF0000A44F004040827009203E003
:1052500008224FF0000A0092C4F30252022A05D03D
:1052600059F804CB0021032A08D009E009F107010D
:1052700021F00702F2E802C1914605E01FFA8CFC1A
:10528000042A01D10CF0FF0C4FF00008220728D5AA
:10529000702806D0009B83F0100353EA0A0305D060
:1052A0000EE040228DF80420012208E05CEA0102B1
:1052B00006D030228DF804208DF805000222904699
:1052C000009B83F0080353EA0A030AD15CEA010257
:1052D00001D1620705D530228DF804204FF0010876
:1052E0007F1E582804D034A003900EA802900DE031
:1052F00036A0F9E753466046009AFAF7B3FF8446B2
:105300000398825C0298401E029002705CEA0100E1
:10531000F0D1029806A9081A00F1200A600702D508
:1053200024F4803400E00127574502DDA7EB0A0092
:1053300000E0002000EB0A01009005984144401A6B
:105340000590E00306D45B462146179A059800F0C5
:10535000B3F90544002706E001A85A46C05D179935
:1053600090476D1C7F1C4745F6DBE0030CD55B4680
:105370002146179A059800F09FF9054404E0302073
:105380005A46179990476D1C0099481E00900029B5
:10539000F5DC08E0029802995A460078491C02910F
:1053A000179990476D1CBAF10001AAF1010AF1DCCE
:1053B00065E10000092801003031323334353637D9
:1053C0003839616263646566000000003031323351
:1053D00034353637383941424344454600000000F1
:1053E00000F058F90544761C307800287FF4ECADC5
:1053F00019B02846BDE8F08F620700D4062709F1EE
:10540000070222F0070CFCE80223E14603F0004803
:105410005FEA080C02D00FF2702C0DE05FEA045C2A
:1054200002D50FF2682C07E05FEAC47C02D00FF2CD
:10543000602C01E0AFF2700C4FF0FF3823F0004316
:10544000CDF850C065280CD006DC452809D0462888
:105450001DD047283DD13DE0662818D067287ED171
:1054600038E00021112F01DB112000E0781CCDE98C
:10547000000106A90EA8FFF7B9FCDDE90F010E9A9D
:1054800003910021009207F1010A04914DE04FF0D1
:1054900000400097CDE9011006A90EA8FFF7A6FC71
:1054A000DDE90F0203920E9B11990022DDF80CA09A
:1054B0000093049211B9791C00EB010AB7EB0A00C2
:1054C00004D4C0F1FF3007F1010A0490AAEB0700F1
:1054D000019044E0012F00DA01270021112F01DDA6
:1054E000112000E03846CDE9000106A90EA8FFF71B
:1054F0007DFCDDE90F010E9A0391002104910092D9
:10550000BA4621070CD40399514500DA8A46BAF10C
:10551000010F05DD009AAAF10101515C302908D084
:10552000B84202DA10F1040F06DA0121CDE90110C8
:1055300015E0AAF10101E9E7002805DC049901441E
:105540000491AAEB000102E0411C514500DD8A46AE
:105550000499401A401C01904FF00040029020072F
:1055600004D40198504501DBCDF8048000208DF86B
:105570004F0002980DF14F07B0F1004F25D02B20BE
:105580000E9002984FF0020800280CDA4042029078
:105590002D200E9007E00A210298FBF7EBF830313E
:1055A000029007F8011DB8F10001A8F10108F2DC32
:1055B00002980028EFD1791E0E980870307800F01C
:1055C000200040F0450007F8020D12A8C01B00F1B2
:1055D00007081498007800B1012000EB0A01019837
:1055E00001EBE07105984144401A401E0590E0032C
:1055F00006D45B462146179A059800F05DF80544ED
:105600001498007818B15A46179990476D1CE0031A
:1056100024D55B462146179A059800F04DF80544BD
:105620001CE00498002807DBDDE90301884203DD64
:105630000098405C179901E0179930205A4690472E
:10564000049805F10105401C04900198401E01904A
:1056500004D12E205A46179990476D1CBAF10001CB
:10566000AAF1010ADDDC05E017F8010B5A4617998B
:1056700090476D1CB8F10001A8F10108F4DC5B460D
:105680002146179A0598ABE62D0000002B0000007C
:10569000200000002DE9F041044600251E46174673
:1056A000880404D405E039462020B0476D1C641EF0
:1056B000F9D52846BDE8F0812DE9F04104460025E2
:1056C0001E469046C80301D5302700E020278804F5
:1056D00004D505E041463846B0476D1C641EF9D537
:1056E0002846BDE8F0814A68002A06D00A68531CA3
:1056F0000B6010704868401E4860704770B50546E2
:105700000068864C86B04FF4FA761D280FD0A0F5BD
:10571000807013386ED000F61250B0F500507CD077
:10572000012802D1286900F07FFA06B070BD01237C
:10573000324600216868FFF753FA606000283DD0C8
:1057400077A140F28910CDE900017D4B7DA281A1B6
:10575000032000F07BFD6068FFF7D6FA01230A22E0
:1057600000216868FFF73CFAA060002832D07AA1D7
:1057700040F29110CDE90001714B72A275A1032096
:1057800000F064FDA068FFF7BFFA01234FF47A72BE
:1057900000216868FFF724FAE060002826D077A18E
:1057A00040F29910CDE90001654B66A269A1032082
:1057B00000F04CFDE068FFF7A7FAB6E778A140F2E9
:1057C0008710CDE900015E4B5EA262A1012000F0CE
:1057D0003DFDC3E77BA140F28F10CDE90001584B9E
:1057E00058A25CA1012000F031FDCEE77FA140F27C
:1057F000971046E028696168884230D14FF4005123
:105800008348FBF741FD012826D1607C5A2812D23B
:10581000607C322802D835460EE07AE0607C4FF496
:10582000C87132384843282190FBF1F0C0F5FA7076
:1058300005B2002D00DA642529466068FFF746FAB4
:1058400074A040F2AD11CDE900103D4B3DA2029590
:1058500040A1032000F0FAFC01F0AAFB65E7A16873
:10586000884202D101F076FB5FE7E1688842A4D16B
:105870002A491131481EFBF7E2F958B169A14FF4EA
:10588000DA70CDE900012E4B2EA232A1012000F0EA
:10589000DDFC4AE7637C227C68A14FF4DB708DE875
:1058A0000F00274B27A22BA1032000F0CFFC0225DD
:1058B0000095227C002329461846FEF7DBFD009563
:1058C000627C002303211846FEF7D4FD94F8A5005E
:1058D000401CC0B284F8A50094F8A4100029BDD1E2
:1058E000C007BBD194F8A6008DF8100094F8A7006B
:1058F0008DF8110000208DF81200207C8DF8130027
:10590000607C8DF8140052480521C26A04A89047B3
:105910000BE7286903F065F907E70000F023002092
:105920006170705F696E697420637265617465206F
:10593000626C696E6B5F74696D6572206F6B2100BC
:10594000599200082E2E5C757365725C6170702E22
:1059500063000000415050006170705F696E6974AF
:1059600020637265617465206B65797363616E5F36
:1059700074696D6572206F6B210000006170705F4B
:10598000696E6974206372656174652073656E73F6
:105990006F725F74696D6572206F6B21000000008B
:1059A0006170705F696E69742063726561746520EF
:1059B000626C696E6B5F74696D6572206572726F7F
:1059C000722100006170705F696E69742063726596
:1059D000617465206B65797363616E5F74696D6571
:1059E00072206572726F7221000000006170705F3A
:1059F000696E6974206372656174652073656E7386
:105A00006F725F74696D6572206572726F722100CA
:105A1000001001404C45442054696D65723A25647C
:105A20000000000044485431315F526561645F44B6
:105A3000617461206572726F7221000054656D702F
:105A40003A25643B2048756D693A256400000000E2
:105A50008C9300087FB5D8213A48FAF75DFC002105
:105A60003948FCF731FF374C00250028206084F8C6
:105A7000A45030D035A14FF48870CDE900013C4BE3
:105A80003CA240A15FF0030000F0E0FB3E4801F0C3
:105A900031FA01F00DFE2B48009501950295039512
:105AA00014303A4B3A490646226803F0A7F83046CC
:105AB00003F0FFF8102084F8A60094F8A400012851
:105AC00013D0012084F8A700FCF7C8FD94F8A400C7
:105AD00001280DD014E02FA14FF48770CDE900010B
